{
  "contractName": "MarxCoin",
  "abi": [
    {
      "constant": true,
      "inputs": [
        {
          "name": "interfaceId",
          "type": "bytes4"
        }
      ],
      "name": "supportsInterface",
      "outputs": [
        {
          "name": "",
          "type": "bool"
        }
      ],
      "payable": false,
      "stateMutability": "view",
      "type": "function"
    },
    {
      "constant": true,
      "inputs": [],
      "name": "Arena",
      "outputs": [
        {
          "name": "",
          "type": "address"
        }
      ],
      "payable": false,
      "stateMutability": "view",
      "type": "function"
    },
    {
      "constant": true,
      "inputs": [],
      "name": "Stalin",
      "outputs": [
        {
          "name": "",
          "type": "address"
        }
      ],
      "payable": false,
      "stateMutability": "view",
      "type": "function"
    },
    {
      "constant": true,
      "inputs": [
        {
          "name": "",
          "type": "uint256"
        }
      ],
      "name": "Komrads",
      "outputs": [
        {
          "name": "owner",
          "type": "address"
        },
        {
          "name": "name",
          "type": "string"
        },
        {
          "name": "isMale",
          "type": "bool"
        },
        {
          "name": "age",
          "type": "uint256"
        },
        {
          "name": "strength",
          "type": "uint256"
        },
        {
          "name": "hunger",
          "type": "uint256"
        },
        {
          "name": "declarationDate",
          "type": "uint256"
        }
      ],
      "payable": false,
      "stateMutability": "view",
      "type": "function"
    },
    {
      "inputs": [],
      "payable": false,
      "stateMutability": "nonpayable",
      "type": "constructor"
    },
    {
      "anonymous": false,
      "inputs": [
        {
          "indexed": false,
          "name": "owner",
          "type": "address"
        },
        {
          "indexed": false,
          "name": "Id",
          "type": "uint256"
        }
      ],
      "name": "result",
      "type": "event"
    },
    {
      "anonymous": false,
      "inputs": [
        {
          "indexed": true,
          "name": "from",
          "type": "address"
        },
        {
          "indexed": true,
          "name": "to",
          "type": "address"
        },
        {
          "indexed": true,
          "name": "tokenId",
          "type": "uint256"
        }
      ],
      "name": "Transfer",
      "type": "event"
    },
    {
      "anonymous": false,
      "inputs": [
        {
          "indexed": true,
          "name": "owner",
          "type": "address"
        },
        {
          "indexed": true,
          "name": "approved",
          "type": "address"
        },
        {
          "indexed": true,
          "name": "tokenId",
          "type": "uint256"
        }
      ],
      "name": "Approval",
      "type": "event"
    },
    {
      "anonymous": false,
      "inputs": [
        {
          "indexed": true,
          "name": "owner",
          "type": "address"
        },
        {
          "indexed": true,
          "name": "operator",
          "type": "address"
        },
        {
          "indexed": false,
          "name": "approved",
          "type": "bool"
        }
      ],
      "name": "ApprovalForAll",
      "type": "event"
    },
    {
      "constant": true,
      "inputs": [
        {
          "name": "owner",
          "type": "address"
        }
      ],
      "name": "balanceOf",
      "outputs": [
        {
          "name": "",
          "type": "uint256"
        }
      ],
      "payable": false,
      "stateMutability": "view",
      "type": "function"
    },
    {
      "constant": true,
      "inputs": [
        {
          "name": "owner",
          "type": "address"
        }
      ],
      "name": "viewCitizens",
      "outputs": [
        {
          "name": "",
          "type": "uint256[]"
        }
      ],
      "payable": false,
      "stateMutability": "view",
      "type": "function"
    },
    {
      "constant": true,
      "inputs": [
        {
          "name": "tokenId",
          "type": "uint256"
        }
      ],
      "name": "ownerOf",
      "outputs": [
        {
          "name": "",
          "type": "address"
        }
      ],
      "payable": false,
      "stateMutability": "view",
      "type": "function"
    },
    {
      "constant": false,
      "inputs": [
        {
          "name": "to",
          "type": "address"
        },
        {
          "name": "tokenId",
          "type": "uint256"
        }
      ],
      "name": "approve",
      "outputs": [],
      "payable": false,
      "stateMutability": "nonpayable",
      "type": "function"
    },
    {
      "constant": true,
      "inputs": [
        {
          "name": "tokenId",
          "type": "uint256"
        }
      ],
      "name": "getApproved",
      "outputs": [
        {
          "name": "",
          "type": "address"
        }
      ],
      "payable": false,
      "stateMutability": "view",
      "type": "function"
    },
    {
      "constant": false,
      "inputs": [
        {
          "name": "to",
          "type": "address"
        },
        {
          "name": "approved",
          "type": "bool"
        }
      ],
      "name": "setApprovalForAll",
      "outputs": [],
      "payable": false,
      "stateMutability": "nonpayable",
      "type": "function"
    },
    {
      "constant": true,
      "inputs": [
        {
          "name": "owner",
          "type": "address"
        },
        {
          "name": "operator",
          "type": "address"
        }
      ],
      "name": "isApprovedForAll",
      "outputs": [
        {
          "name": "",
          "type": "bool"
        }
      ],
      "payable": false,
      "stateMutability": "view",
      "type": "function"
    },
    {
      "constant": false,
      "inputs": [
        {
          "name": "from",
          "type": "address"
        },
        {
          "name": "to",
          "type": "address"
        },
        {
          "name": "tokenId",
          "type": "uint256"
        }
      ],
      "name": "transferFrom",
      "outputs": [],
      "payable": false,
      "stateMutability": "nonpayable",
      "type": "function"
    },
    {
      "constant": false,
      "inputs": [
        {
          "name": "from",
          "type": "address"
        },
        {
          "name": "to",
          "type": "address"
        },
        {
          "name": "tokenId",
          "type": "uint256"
        }
      ],
      "name": "safeTransferFrom",
      "outputs": [],
      "payable": false,
      "stateMutability": "nonpayable",
      "type": "function"
    },
    {
      "constant": false,
      "inputs": [
        {
          "name": "from",
          "type": "address"
        },
        {
          "name": "to",
          "type": "address"
        },
        {
          "name": "tokenId",
          "type": "uint256"
        },
        {
          "name": "_data",
          "type": "bytes"
        }
      ],
      "name": "safeTransferFrom",
      "outputs": [],
      "payable": false,
      "stateMutability": "nonpayable",
      "type": "function"
    },
    {
      "constant": false,
      "inputs": [
        {
          "name": "_new",
          "type": "address"
        }
      ],
      "name": "addKomandarm",
      "outputs": [
        {
          "name": "success",
          "type": "bool"
        }
      ],
      "payable": false,
      "stateMutability": "nonpayable",
      "type": "function"
    },
    {
      "constant": false,
      "inputs": [
        {
          "name": "_name",
          "type": "string"
        },
        {
          "name": "_isMale",
          "type": "bool"
        },
        {
          "name": "_age",
          "type": "uint256"
        },
        {
          "name": "_strength",
          "type": "uint256"
        },
        {
          "name": "_hunger",
          "type": "uint256"
        }
      ],
      "name": "declareCitizen",
      "outputs": [
        {
          "name": "success",
          "type": "bool"
        }
      ],
      "payable": false,
      "stateMutability": "nonpayable",
      "type": "function"
    },
    {
      "constant": false,
      "inputs": [
        {
          "name": "_id",
          "type": "uint256"
        }
      ],
      "name": "death",
      "outputs": [
        {
          "name": "success",
          "type": "bool"
        }
      ],
      "payable": false,
      "stateMutability": "nonpayable",
      "type": "function"
    },
    {
      "constant": false,
      "inputs": [
        {
          "name": "_id",
          "type": "uint256"
        }
      ],
      "name": "gulag",
      "outputs": [
        {
          "name": "success",
          "type": "bool"
        }
      ],
      "payable": false,
      "stateMutability": "nonpayable",
      "type": "function"
    },
    {
      "constant": false,
      "inputs": [
        {
          "name": "_id1",
          "type": "uint256"
        },
        {
          "name": "_id2",
          "type": "uint256"
        },
        {
          "name": "_name1",
          "type": "string"
        },
        {
          "name": "_name2",
          "type": "string"
        }
      ],
      "name": "reproduce",
      "outputs": [],
      "payable": false,
      "stateMutability": "nonpayable",
      "type": "function"
    },
    {
      "constant": false,
      "inputs": [
        {
          "name": "_name",
          "type": "string"
        },
        {
          "name": "_owner",
          "type": "address"
        }
      ],
      "name": "spawn",
      "outputs": [
        {
          "name": "babyId",
          "type": "uint256"
        }
      ],
      "payable": false,
      "stateMutability": "nonpayable",
      "type": "function"
    },
    {
      "constant": false,
      "inputs": [
        {
          "name": "_id",
          "type": "uint256"
        }
      ],
      "name": "update",
      "outputs": [
        {
          "name": "success",
          "type": "bool"
        }
      ],
      "payable": false,
      "stateMutability": "nonpayable",
      "type": "function"
    },
    {
      "constant": true,
      "inputs": [
        {
          "name": "_id",
          "type": "uint256"
        }
      ],
      "name": "viewStats",
      "outputs": [
        {
          "name": "success",
          "type": "bool"
        },
        {
          "name": "name",
          "type": "string"
        },
        {
          "name": "age",
          "type": "uint256"
        },
        {
          "name": "isMale",
          "type": "bool"
        },
        {
          "name": "strength",
          "type": "uint256"
        },
        {
          "name": "hunger",
          "type": "uint256"
        }
      ],
      "payable": false,
      "stateMutability": "view",
      "type": "function"
    },
    {
      "constant": true,
      "inputs": [],
      "name": "viewInbox",
      "outputs": [
        {
          "name": "_offers",
          "type": "uint256[]"
        }
      ],
      "payable": false,
      "stateMutability": "view",
      "type": "function"
    },
    {
      "constant": true,
      "inputs": [
        {
          "name": "_offerID",
          "type": "uint256"
        }
      ],
      "name": "viewOffer",
      "outputs": [
        {
          "name": "_sender",
          "type": "address"
        },
        {
          "name": "_theirChamp",
          "type": "uint256"
        },
        {
          "name": "_myChamp",
          "type": "uint256"
        },
        {
          "name": "fightOrBreed",
          "type": "string"
        }
      ],
      "payable": false,
      "stateMutability": "view",
      "type": "function"
    },
    {
      "constant": false,
      "inputs": [
        {
          "name": "_adversary",
          "type": "address"
        },
        {
          "name": "_myChamp",
          "type": "uint256"
        },
        {
          "name": "_theirChamp",
          "type": "uint256"
        }
      ],
      "name": "proposeFight",
      "outputs": [],
      "payable": false,
      "stateMutability": "nonpayable",
      "type": "function"
    },
    {
      "constant": false,
      "inputs": [
        {
          "name": "_adversary",
          "type": "address"
        },
        {
          "name": "_myChamp",
          "type": "uint256"
        },
        {
          "name": "_theirChamp",
          "type": "uint256"
        }
      ],
      "name": "proposeBreed",
      "outputs": [],
      "payable": false,
      "stateMutability": "nonpayable",
      "type": "function"
    },
    {
      "constant": false,
      "inputs": [
        {
          "name": "_offerId",
          "type": "uint256"
        }
      ],
      "name": "acceptFight",
      "outputs": [],
      "payable": false,
      "stateMutability": "nonpayable",
      "type": "function"
    },
    {
      "constant": false,
      "inputs": [
        {
          "name": "_offerId",
          "type": "uint256"
        },
        {
          "name": "_name1",
          "type": "string"
        },
        {
          "name": "_name2",
          "type": "string"
        }
      ],
      "name": "acceptBreed",
      "outputs": [],
      "payable": false,
      "stateMutability": "nonpayable",
      "type": "function"
    }
  ],
  "bytecode": "0x608060405261068060405190810160405280600360ff168152602001600160ff168152602001600460ff168152602001600160ff168152602001600560ff168152602001600960ff168152602001600260ff168152602001600660ff168152602001600560ff168152602001600360ff168152602001600560ff168152602001600860ff168152602001600960ff168152602001600760ff168152602001600960ff168152602001600360ff168152602001600260ff168152602001600360ff168152602001600860ff168152602001600460ff168152602001600660ff168152602001600260ff168152602001600660ff168152602001600460ff168152602001600360ff168152602001600360ff168152602001600860ff168152602001600360ff168152602001600260ff168152602001600760ff168152602001600960ff168152602001600560ff168152602001600060ff168152602001600260ff168152602001600860ff168152602001600860ff168152602001600460ff168152602001600060ff168152602001600160ff168152602001600960ff168152602001600760ff168152602001600160ff168152602001600660ff168152602001600960ff168152602001600360ff168152602001600960ff168152602001600960ff168152602001600360ff168152602001600760ff168152602001600560ff168152602001600160ff168152602001600060ff16815250600c9060346200022992919062000886565b506040805190810160405280600581526020017f4272656564000000000000000000000000000000000000000000000000000000815250600e908051906020019062000277929190620008dd565b506040805190810160405280600581526020017f4669676874000000000000000000000000000000000000000000000000000000815250600f9080519060200190620002c5929190620008dd565b50348015620002d357600080fd5b50620003116301ffc9a77c0100000000000000000000000000000000000000000000000000000000026200048a640100000000026401000000009004565b6200034e6380ac58cd7c0100000000000000000000000000000000000000000000000000000000026200048a640100000000026401000000009004565b33600760006101000a81548173ffffffffffffffffffffffffffffffffffffffff021916908373ffffffffffffffffffffffffffffffffffffffff1602179055506000600d81905550620003d3600760009054906101000a900473ffffffffffffffffffffffffffffffffffffffff1662000548640100000000026401000000009004565b506200042b6040805190810160405280600781526020017f44696d697472690000000000000000000000000000000000000000000000000081525060016026602860006200066e640100000000026401000000009004565b50620004836040805190810160405280600881526020017f537665746c616e6100000000000000000000000000000000000000000000000081525060006026602860006200066e640100000000026401000000009004565b506200098c565b63ffffffff7c010000000000000000000000000000000000000000000000000000000002817bffffffffffffffffffffffffffffffffffffffffffffffffffffffff191614151515620004dc57600080fd5b6001600080837bffffffffffffffffffffffffffffffffffffffffffffffffffffffff19167bffffffffffffffffffffffffffffffffffffffffffffffffffffffff1916815260200190815260200160002060006101000a81548160ff02191690831515021790555050565b6000600760009054906101000a900473ffffffffffffffffffffffffffffffffffffffff1673ffffffffffffffffffffffffffffffffffffffff163373ffffffffffffffffffffffffffffffffffffffff16141515620005a757600080fd5b6001600560008473ffffffffffffffffffffffffffffffffffffffff1673ffffffffffffffffffffffffffffffffffffffff16815260200190815260200160002060006101000a81548160ff02191690831515021790555060068290806001815401808255809150509060018203906000526020600020016000909192909190916101000a81548173ffffffffffffffffffffffffffffffffffffffff021916908373ffffffffffffffffffffffffffffffffffffffff1602179055505060019050919050565b600080600060011515600560003373ffffffffffffffffffffffffffffffffffffffff1673ffffffffffffffffffffffffffffffffffffffff16815260200190815260200160002060009054906101000a900460ff161515141515620006d357600080fd5b600b805490509150336001600084815260200190815260200160002060006101000a81548173ffffffffffffffffffffffffffffffffffffffff021916908373ffffffffffffffffffffffffffffffffffffffff160217905550600b829080600181540180825580915050906001820390600052602060002001600090919290919091505550600a60008381526020019081526020016000209050338160000160006101000a81548173ffffffffffffffffffffffffffffffffffffffff021916908373ffffffffffffffffffffffffffffffffffffffff16021790555087816001019080519060200190620007cb929190620008dd565b50868160020160006101000a81548160ff0219169083151502179055508581600301819055508481600401819055508381600501819055504281600601819055507f3e6da5d534c8f4deb4a5b7d8dc92c2981457f15d8310bf6f69b126529c9976cc3383604051808373ffffffffffffffffffffffffffffffffffffffff1673ffffffffffffffffffffffffffffffffffffffff1681526020018281526020019250505060405180910390a160019250505095945050505050565b828054828255906000526020600020908101928215620008ca579160200282015b82811115620008c9578251829060ff16905591602001919060010190620008a7565b5b509050620008d9919062000964565b5090565b828054600181600116156101000203166002900490600052602060002090601f016020900481019282601f106200092057805160ff191683800117855562000951565b8280016001018555821562000951579182015b828111156200095057825182559160200191906001019062000933565b5b50905062000960919062000964565b5090565b6200098991905b80821115620009855760008160009055506001016200096b565b5090565b90565b613587806200099c6000396000f300608060405260043610610169576000357c0100000000000000000000000000000000000000000000000000000000900463ffffffff168062192f631461016e57806301ffc9a7146101b3578063081812fc14610217578063095ea7b3146102845780630d63d234146102d157806315919eed146102fe57806323b872dd146103555780632c0a6cfd146103c257806342421f901461046d57806342842e0e146104c457806348aa5cb0146105315780635fbe29491461059d5780636352211e1461063a57806366571b5b146106a757806370a08231146107a75780637dea4844146107fe57806382ab890a146108435780639b55e638146108885780639d12c4b41461096f578063a22cb46514610a07578063b88d4fde14610a56578063c502922714610b09578063c9dc5be214610b60578063d346355f14610c23578063d9a63a2514610cdc578063e1c96c6714610d33578063e726ff5014610d8e578063e985e9c514610e5f575b600080fd5b34801561017a57600080fd5b5061019960048036038101908080359060200190929190505050610eda565b604051808215151515815260200191505060405180910390f35b3480156101bf57600080fd5b506101fd60048036038101908080357bffffffffffffffffffffffffffffffffffffffffffffffffffffffff19169060200190929190505050610f39565b604051808215151515815260200191505060405180910390f35b34801561022357600080fd5b5061024260048036038101908080359060200190929190505050610fa0565b604051808273ffffffffffffffffffffffffffffffffffffffff1673ffffffffffffffffffffffffffffffffffffffff16815260200191505060405180910390f35b34801561029057600080fd5b506102cf600480360381019080803573ffffffffffffffffffffffffffffffffffffffff16906020019092919080359060200190929190505050610ff1565b005b3480156102dd57600080fd5b506102fc60048036038101908080359060200190929190505050611136565b005b34801561030a57600080fd5b506103136112d8565b604051808273ffffffffffffffffffffffffffffffffffffffff1673ffffffffffffffffffffffffffffffffffffffff16815260200191505060405180910390f35b34801561036157600080fd5b506103c0600480360381019080803573ffffffffffffffffffffffffffffffffffffffff169060200190929190803573ffffffffffffffffffffffffffffffffffffffff169060200190929190803590602001909291905050506112fe565b005b3480156103ce57600080fd5b50610453600480360381019080803590602001908201803590602001908080601f01602080910402602001604051908101604052809392919081815260200183838082843782019150505050505091929192908035151590602001909291908035906020019092919080359060200190929190803590602001909291905050506113cd565b604051808215151515815260200191505060405180910390f35b34801561047957600080fd5b506104826115e2565b604051808273ffffffffffffffffffffffffffffffffffffffff1673ffffffffffffffffffffffffffffffffffffffff16815260200191505060405180910390f35b3480156104d057600080fd5b5061052f600480360381019080803573ffffffffffffffffffffffffffffffffffffffff169060200190929190803573ffffffffffffffffffffffffffffffffffffffff16906020019092919080359060200190929190505050611608565b005b34801561053d57600080fd5b50610546611629565b6040518080602001828103825283818151815260200191508051906020019060200280838360005b8381101561058957808201518184015260208101905061056e565b505050509050019250505060405180910390f35b3480156105a957600080fd5b50610624600480360381019080803590602001908201803590602001908080601f0160208091040260200160405190810160405280939291908181526020018383808284378201915050505050509192919290803573ffffffffffffffffffffffffffffffffffffffff1690602001909291905050506116c1565b6040518082815260200191505060405180910390f35b34801561064657600080fd5b506106656004803603810190808035906020019092919050505061181a565b604051808273ffffffffffffffffffffffffffffffffffffffff1673ffffffffffffffffffffffffffffffffffffffff16815260200191505060405180910390f35b3480156106b357600080fd5b506106d260048036038101908080359060200190929190505050611898565b604051808873ffffffffffffffffffffffffffffffffffffffff1673ffffffffffffffffffffffffffffffffffffffff1681526020018060200187151515158152602001868152602001858152602001848152602001838152602001828103825288818151815260200191508051906020019080838360005b8381101561076657808201518184015260208101905061074b565b50505050905090810190601f1680156107935780820380516001836020036101000a031916815260200191505b509850505050505050505060405180910390f35b3480156107b357600080fd5b506107e8600480360381019080803573ffffffffffffffffffffffffffffffffffffffff16906020019092919050505061199f565b6040518082815260200191505060405180910390f35b34801561080a57600080fd5b5061082960048036038101908080359060200190929190505050611a23565b604051808215151515815260200191505060405180910390f35b34801561084f57600080fd5b5061086e60048036038101908080359060200190929190505050611a40565b604051808215151515815260200191505060405180910390f35b34801561089457600080fd5b506108b360048036038101908080359060200190929190505050611a52565b604051808573ffffffffffffffffffffffffffffffffffffffff1673ffffffffffffffffffffffffffffffffffffffff16815260200184815260200183815260200180602001828103825283818151815260200191508051906020019080838360005b83811015610931578082015181840152602081019050610916565b50505050905090810190601f16801561095e5780820380516001836020036101000a031916815260200191505b509550505050505060405180910390f35b34801561097b57600080fd5b506109b0600480360381019080803573ffffffffffffffffffffffffffffffffffffffff169060200190929190505050611ca6565b6040518080602001828103825283818151815260200191508051906020019060200280838360005b838110156109f35780820151818401526020810190506109d8565b505050509050019250505060405180910390f35b348015610a1357600080fd5b50610a54600480360381019080803573ffffffffffffffffffffffffffffffffffffffff169060200190929190803515159060200190929190505050611deb565b005b348015610a6257600080fd5b50610b07600480360381019080803573ffffffffffffffffffffffffffffffffffffffff169060200190929190803573ffffffffffffffffffffffffffffffffffffffff16906020019092919080359060200190929190803590602001908201803590602001908080601f0160208091040260200160405190810160405280939291908181526020018383808284378201915050505050509192919290505050611f27565b005b348015610b1557600080fd5b50610b5e600480360381019080803573ffffffffffffffffffffffffffffffffffffffff1690602001909291908035906020019092919080359060200190929190505050611f4f565b005b348015610b6c57600080fd5b50610c216004803603810190808035906020019092919080359060200190929190803590602001908201803590602001908080601f0160208091040260200160405190810160405280939291908181526020018383808284378201915050505050509192919290803590602001908201803590602001908080601f0160208091040260200160405190810160405280939291908181526020018383808284378201915050505050509192919290505050612237565b005b348015610c2f57600080fd5b50610cda60048036038101908080359060200190929190803590602001908201803590602001908080601f0160208091040260200160405190810160405280939291908181526020018383808284378201915050505050509192919290803590602001908201803590602001908080601f0160208091040260200160405190810160405280939291908181526020018383808284378201915050505050509192919290505050612253565b005b348015610ce857600080fd5b50610d31600480360381019080803573ffffffffffffffffffffffffffffffffffffffff1690602001909291908035906020019092919080359060200190929190505050612386565b005b348015610d3f57600080fd5b50610d74600480360381019080803573ffffffffffffffffffffffffffffffffffffffff1690602001909291905050506126c7565b604051808215151515815260200191505060405180910390f35b348015610d9a57600080fd5b50610db9600480360381019080803590602001909291905050506127ec565b60405180871515151581526020018060200186815260200185151515158152602001848152602001838152602001828103825287818151815260200191508051906020019080838360005b83811015610e1f578082015181840152602081019050610e04565b50505050905090810190601f168015610e4c5780820380516001836020036101000a031916815260200191505b5097505050505050505060405180910390f35b348015610e6b57600080fd5b50610ec0600480360381019080803573ffffffffffffffffffffffffffffffffffffffff169060200190929190803573ffffffffffffffffffffffffffffffffffffffff169060200190929190505050612932565b604051808215151515815260200191505060405180910390f35b6000610ee58261181a565b73ffffffffffffffffffffffffffffffffffffffff163373ffffffffffffffffffffffffffffffffffffffff16141515610f1e57600080fd5b610f30610f2a8361181a565b836129c6565b60019050919050565b6000806000837bffffffffffffffffffffffffffffffffffffffffffffffffffffffff19167bffffffffffffffffffffffffffffffffffffffffffffffffffffffff1916815260200190815260200160002060009054906101000a900460ff169050919050565b6000610fab82612a3a565b1515610fb657600080fd5b6002600083815260200190815260200160002060009054906101000a900473ffffffffffffffffffffffffffffffffffffffff169050919050565b6000610ffc8261181a565b90508073ffffffffffffffffffffffffffffffffffffffff168373ffffffffffffffffffffffffffffffffffffffff161415151561103957600080fd5b8073ffffffffffffffffffffffffffffffffffffffff163373ffffffffffffffffffffffffffffffffffffffff16148061107957506110788133612932565b5b151561108457600080fd5b826002600084815260200190815260200160002060006101000a81548173ffffffffffffffffffffffffffffffffffffffff021916908373ffffffffffffffffffffffffffffffffffffffff160217905550818373ffffffffffffffffffffffffffffffffffffffff168273ffffffffffffffffffffffffffffffffffffffff167f8c5be1e5ebec7d5bd14f71427d1e84f3dd0314c0f7b2291e5b200ac8c7c3b92560405160405180910390a4505050565b600060011515600960003373ffffffffffffffffffffffffffffffffffffffff1673ffffffffffffffffffffffffffffffffffffffff168152602001908152602001600020600101600084815260200190815260200160002060040160009054906101000a900460ff16151514156112d45761125e600960003373ffffffffffffffffffffffffffffffffffffffff1673ffffffffffffffffffffffffffffffffffffffff168152602001908152602001600020600101600084815260200190815260200160002060020154600960003373ffffffffffffffffffffffffffffffffffffffff1673ffffffffffffffffffffffffffffffffffffffff168152602001908152602001600020600101600085815260200190815260200160002060030154612aac565b90507f3e6da5d534c8f4deb4a5b7d8dc92c2981457f15d8310bf6f69b126529c9976cc61128a8261181a565b82604051808373ffffffffffffffffffffffffffffffffffffffff1673ffffffffffffffffffffffffffffffffffffffff1681526020018281526020019250505060405180910390a15b5050565b600860009054906101000a900473ffffffffffffffffffffffffffffffffffffffff1681565b6113083382612b06565b151561131357600080fd5b600073ffffffffffffffffffffffffffffffffffffffff168273ffffffffffffffffffffffffffffffffffffffff161415151561134f57600080fd5b6113598382612b9b565b6113638382612c9e565b61136d8282612dcd565b808273ffffffffffffffffffffffffffffffffffffffff168473ffffffffffffffffffffffffffffffffffffffff167fddf252ad1be2c89b69c2b068fc378daa952ba7f163c4a11628f55a4df523b3ef60405160405180910390a4505050565b600080600060011515600560003373ffffffffffffffffffffffffffffffffffffffff1673ffffffffffffffffffffffffffffffffffffffff16815260200190815260200160002060009054906101000a900460ff16151514151561143157600080fd5b600b805490509150336001600084815260200190815260200160002060006101000a81548173ffffffffffffffffffffffffffffffffffffffff021916908373ffffffffffffffffffffffffffffffffffffffff160217905550600b829080600181540180825580915050906001820390600052602060002001600090919290919091505550600a60008381526020019081526020016000209050338160000160006101000a81548173ffffffffffffffffffffffffffffffffffffffff021916908373ffffffffffffffffffffffffffffffffffffffff160217905550878160010190805190602001906115279291906134b6565b50868160020160006101000a81548160ff0219169083151502179055508581600301819055508481600401819055508381600501819055504281600601819055507f3e6da5d534c8f4deb4a5b7d8dc92c2981457f15d8310bf6f69b126529c9976cc3383604051808373ffffffffffffffffffffffffffffffffffffffff1673ffffffffffffffffffffffffffffffffffffffff1681526020018281526020019250505060405180910390a160019250505095945050505050565b600760009054906101000a900473ffffffffffffffffffffffffffffffffffffffff1681565b6116248383836020604051908101604052806000815250611f27565b505050565b6060600960003373ffffffffffffffffffffffffffffffffffffffff1673ffffffffffffffffffffffffffffffffffffffff1681526020019081526020016000206002018054806020026020016040519081016040528092919081815260200182805480156116b757602002820191906000526020600020905b8154815260200190600101908083116116a3575b5050505050905090565b6000806000600b805490509150600b829080600181540180825580915050906001820390600052602060002001600090919290919091505550600a60008381526020019081526020016000209050838160000160006101000a81548173ffffffffffffffffffffffffffffffffffffffff021916908373ffffffffffffffffffffffffffffffffffffffff1602179055508481600101908051906020019061176a9291906134b6565b506004611775612f27565b111561179d5760018160020160006101000a81548160ff0219169083151502179055506117bb565b60008160020160006101000a81548160ff0219169083151502179055505b60016117c5612f27565b016117ce612f27565b0281600301819055506117df612f27565b600a6117e9612f27565b0201816004018190555080600301548160040154038160050181905550428160060181905550819250505092915050565b6000806001600084815260200190815260200160002060009054906101000a900473ffffffffffffffffffffffffffffffffffffffff169050600073ffffffffffffffffffffffffffffffffffffffff168173ffffffffffffffffffffffffffffffffffffffff161415151561188f57600080fd5b80915050919050565b600a6020528060005260406000206000915090508060000160009054906101000a900473ffffffffffffffffffffffffffffffffffffffff1690806001018054600181600116156101000203166002900480601f01602080910402602001604051908101604052809291908181526020018280546001816001161561010002031660029004801561196a5780601f1061193f5761010080835404028352916020019161196a565b820191906000526020600020905b81548152906001019060200180831161194d57829003601f168201915b5050505050908060020160009054906101000a900460ff16908060030154908060040154908060050154908060060154905087565b60008073ffffffffffffffffffffffffffffffffffffffff168273ffffffffffffffffffffffffffffffffffffffff16141515156119dc57600080fd5b600360008373ffffffffffffffffffffffffffffffffffffffff1673ffffffffffffffffffffffffffffffffffffffff168152602001908152602001600020549050919050565b6000611a37611a318361181a565b836129c6565b60019050919050565b6000611a4b82612f5e565b9050919050565b600080600060606000600e905060011515600960003373ffffffffffffffffffffffffffffffffffffffff1673ffffffffffffffffffffffffffffffffffffffff168152602001908152602001600020600101600088815260200190815260200160002060040160009054906101000a900460ff1615151415611ad457600f90505b600960003373ffffffffffffffffffffffffffffffffffffffff1673ffffffffffffffffffffffffffffffffffffffff168152602001908152602001600020600101600087815260200190815260200160002060000160009054906101000a900473ffffffffffffffffffffffffffffffffffffffff16600960003373ffffffffffffffffffffffffffffffffffffffff1673ffffffffffffffffffffffffffffffffffffffff168152602001908152602001600020600101600088815260200190815260200160002060020154600960003373ffffffffffffffffffffffffffffffffffffffff1673ffffffffffffffffffffffffffffffffffffffff16815260200190815260200160002060010160008981526020019081526020016000206003015483808054600181600116156101000203166002900480601f016020809104026020016040519081016040528092919081815260200182805460018160011615610100020316600290048015611c8f5780601f10611c6457610100808354040283529160200191611c8f565b820191906000526020600020905b815481529060010190602001808311611c7257829003601f168201915b505050505090509450945094509450509193509193565b6060600080600090505b600b80549050811015611d92578373ffffffffffffffffffffffffffffffffffffffff16600a6000600b84815481101515611ce757fe5b9060005260206000200154815260200190815260200160002060000160009054906101000a900473ffffffffffffffffffffffffffffffffffffffff1673ffffffffffffffffffffffffffffffffffffffff161415611d855781600b82815481101515611d5057fe5b906000526020600020015490806001815401808255809150509060018203906000526020600020016000909192909190915055505b8080600101915050611cb0565b81805480602002602001604051908101604052809291908181526020018280548015611ddd57602002820191906000526020600020905b815481526020019060010190808311611dc9575b505050505092505050919050565b3373ffffffffffffffffffffffffffffffffffffffff168273ffffffffffffffffffffffffffffffffffffffff1614151515611e2657600080fd5b80600460003373ffffffffffffffffffffffffffffffffffffffff1673ffffffffffffffffffffffffffffffffffffffff16815260200190815260200160002060008473ffffffffffffffffffffffffffffffffffffffff1673ffffffffffffffffffffffffffffffffffffffff16815260200190815260200160002060006101000a81548160ff0219169083151502179055508173ffffffffffffffffffffffffffffffffffffffff163373ffffffffffffffffffffffffffffffffffffffff167f17307eab39ab6107e8899845ad3d59bd9653f200f220920489ca2b5937696c3183604051808215151515815260200191505060405180910390a35050565b611f328484846112fe565b611f3e8484848461300d565b1515611f4957600080fd5b50505050565b60003373ffffffffffffffffffffffffffffffffffffffff16600a600085815260200190815260200160002060000160009054906101000a900473ffffffffffffffffffffffffffffffffffffffff1673ffffffffffffffffffffffffffffffffffffffff16141515611fc157600080fd5b8373ffffffffffffffffffffffffffffffffffffffff16600a600084815260200190815260200160002060000160009054906101000a900473ffffffffffffffffffffffffffffffffffffffff1673ffffffffffffffffffffffffffffffffffffffff1614151561203157600080fd5b600960008573ffffffffffffffffffffffffffffffffffffffff1673ffffffffffffffffffffffffffffffffffffffff1681526020019081526020016000206001016000600960008773ffffffffffffffffffffffffffffffffffffffff1673ffffffffffffffffffffffffffffffffffffffff1681526020019081526020016000206002018054905081526020019081526020016000209050600960008573ffffffffffffffffffffffffffffffffffffffff1673ffffffffffffffffffffffffffffffffffffffff168152602001908152602001600020600201600960008673ffffffffffffffffffffffffffffffffffffffff1673ffffffffffffffffffffffffffffffffffffffff168152602001908152602001600020600201805490509080600181540180825580915050906001820390600052602060002001600090919290919091505550338160000160006101000a81548173ffffffffffffffffffffffffffffffffffffffff021916908373ffffffffffffffffffffffffffffffffffffffff160217905550838160010160006101000a81548173ffffffffffffffffffffffffffffffffffffffff021916908373ffffffffffffffffffffffffffffffffffffffff16021790555082816002018190555081816003018190555060018160040160006101000a81548160ff02191690831515021790555050505050565b61224284848361322f565b61224d83858461322f565b50505050565b60001515600960003373ffffffffffffffffffffffffffffffffffffffff1673ffffffffffffffffffffffffffffffffffffffff168152602001908152602001600020600101600085815260200190815260200160002060040160009054906101000a900460ff1615151415156122c957600080fd5b612381600960003373ffffffffffffffffffffffffffffffffffffffff1673ffffffffffffffffffffffffffffffffffffffff168152602001908152602001600020600101600085815260200190815260200160002060020154600960003373ffffffffffffffffffffffffffffffffffffffff1673ffffffffffffffffffffffffffffffffffffffff1681526020019081526020016000206001016000868152602001908152602001600020600301548484612237565b505050565b60003373ffffffffffffffffffffffffffffffffffffffff16600a600085815260200190815260200160002060000160009054906101000a900473ffffffffffffffffffffffffffffffffffffffff1673ffffffffffffffffffffffffffffffffffffffff161415156123f857600080fd5b8373ffffffffffffffffffffffffffffffffffffffff16600a600084815260200190815260200160002060000160009054906101000a900473ffffffffffffffffffffffffffffffffffffffff1673ffffffffffffffffffffffffffffffffffffffff1614151561246857600080fd5b600a600083815260200190815260200160002060020160009054906101000a900460ff161515600a600085815260200190815260200160002060020160009054906101000a900460ff161515141515156124c157600080fd5b600960008573ffffffffffffffffffffffffffffffffffffffff1673ffffffffffffffffffffffffffffffffffffffff1681526020019081526020016000206001016000600960008773ffffffffffffffffffffffffffffffffffffffff1673ffffffffffffffffffffffffffffffffffffffff1681526020019081526020016000206002018054905081526020019081526020016000209050600960008573ffffffffffffffffffffffffffffffffffffffff1673ffffffffffffffffffffffffffffffffffffffff168152602001908152602001600020600201600960008673ffffffffffffffffffffffffffffffffffffffff1673ffffffffffffffffffffffffffffffffffffffff168152602001908152602001600020600201805490509080600181540180825580915050906001820390600052602060002001600090919290919091505550338160000160006101000a81548173ffffffffffffffffffffffffffffffffffffffff021916908373ffffffffffffffffffffffffffffffffffffffff160217905550838160010160006101000a81548173ffffffffffffffffffffffffffffffffffffffff021916908373ffffffffffffffffffffffffffffffffffffffff16021790555082816002018190555081816003018190555060008160040160006101000a81548160ff02191690831515021790555050505050565b6000600760009054906101000a900473ffffffffffffffffffffffffffffffffffffffff1673ffffffffffffffffffffffffffffffffffffffff163373ffffffffffffffffffffffffffffffffffffffff1614151561272557600080fd5b6001600560008473ffffffffffffffffffffffffffffffffffffffff1673ffffffffffffffffffffffffffffffffffffffff16815260200190815260200160002060006101000a81548160ff02191690831515021790555060068290806001815401808255809150509060018203906000526020600020016000909192909190916101000a81548173ffffffffffffffffffffffffffffffffffffffff021916908373ffffffffffffffffffffffffffffffffffffffff1602179055505060019050919050565b600060606000806000806127ff87612f5e565b506001600a6000898152602001908152602001600020600101600a60008a815260200190815260200160002060030154600a60008b815260200190815260200160002060020160009054906101000a900460ff16600a60008c815260200190815260200160002060040154600a60008d815260200190815260200160002060050154848054600181600116156101000203166002900480601f0160208091040260200160405190810160405280929190818152602001828054600181600116156101000203166002900480156129165780601f106128eb57610100808354040283529160200191612916565b820191906000526020600020905b8154815290600101906020018083116128f957829003601f168201915b5050505050945095509550955095509550955091939550919395565b6000600460008473ffffffffffffffffffffffffffffffffffffffff1673ffffffffffffffffffffffffffffffffffffffff16815260200190815260200160002060008373ffffffffffffffffffffffffffffffffffffffff1673ffffffffffffffffffffffffffffffffffffffff16815260200190815260200160002060009054906101000a900460ff16905092915050565b6129d08282612b9b565b6129da8282612c9e565b80600073ffffffffffffffffffffffffffffffffffffffff168373ffffffffffffffffffffffffffffffffffffffff167fddf252ad1be2c89b69c2b068fc378daa952ba7f163c4a11628f55a4df523b3ef60405160405180910390a45050565b6000806001600084815260200190815260200160002060009054906101000a900473ffffffffffffffffffffffffffffffffffffffff169050600073ffffffffffffffffffffffffffffffffffffffff168173ffffffffffffffffffffffffffffffffffffffff161415915050919050565b6000612ab6612f27565b600a60008481526020019081526020016000206004015402612ad6612f27565b600a600086815260200190815260200160002060040154021115612afc57829050612b00565b8190505b92915050565b600080612b128361181a565b90508073ffffffffffffffffffffffffffffffffffffffff168473ffffffffffffffffffffffffffffffffffffffff161480612b8157508373ffffffffffffffffffffffffffffffffffffffff16612b6984610fa0565b73ffffffffffffffffffffffffffffffffffffffff16145b80612b925750612b918185612932565b5b91505092915050565b8173ffffffffffffffffffffffffffffffffffffffff16612bbb8261181a565b73ffffffffffffffffffffffffffffffffffffffff16141515612bdd57600080fd5b600073ffffffffffffffffffffffffffffffffffffffff166002600083815260200190815260200160002060009054906101000a900473ffffffffffffffffffffffffffffffffffffffff1673ffffffffffffffffffffffffffffffffffffffff16141515612c9a5760006002600083815260200190815260200160002060006101000a81548173ffffffffffffffffffffffffffffffffffffffff021916908373ffffffffffffffffffffffffffffffffffffffff1602179055505b5050565b8173ffffffffffffffffffffffffffffffffffffffff16612cbe8261181a565b73ffffffffffffffffffffffffffffffffffffffff16141515612ce057600080fd5b612d336001600360008573ffffffffffffffffffffffffffffffffffffffff1673ffffffffffffffffffffffffffffffffffffffff1681526020019081526020016000205461346190919063ffffffff16565b600360008473ffffffffffffffffffffffffffffffffffffffff1673ffffffffffffffffffffffffffffffffffffffff1681526020019081526020016000208190555060006001600083815260200190815260200160002060006101000a81548173ffffffffffffffffffffffffffffffffffffffff021916908373ffffffffffffffffffffffffffffffffffffffff1602179055505050565b600073ffffffffffffffffffffffffffffffffffffffff166001600083815260200190815260200160002060009054906101000a900473ffffffffffffffffffffffffffffffffffffffff1673ffffffffffffffffffffffffffffffffffffffff16141515612e3b57600080fd5b816001600083815260200190815260200160002060006101000a81548173ffffffffffffffffffffffffffffffffffffffff021916908373ffffffffffffffffffffffffffffffffffffffff160217905550612ee06001600360008573ffffffffffffffffffffffffffffffffffffffff1673ffffffffffffffffffffffffffffffffffffffff1681526020019081526020016000205461348290919063ffffffff16565b600360008473ffffffffffffffffffffffffffffffffffffffff1673ffffffffffffffffffffffffffffffffffffffff168152602001908152602001600020819055505050565b60006033600d541415612f3d576000600d819055505b600c600d54815481101515612f4e57fe5b9060005260206000200154905090565b600080600a600084815260200190815260200160002090508060060154420381600301819055506404b3cd5c0081600301541115612ffd5764054a4707808160030154101515612fc357612fba612fb48461181a565b846129c6565b60009150613007565b6404b3cd5c00816003015403612fd7612f27565b1015612ff857612fef612fe98461181a565b846129c6565b60009150613007565b613006565b60019150613007565b5b50919050565b60008061302f8573ffffffffffffffffffffffffffffffffffffffff166134a3565b151561303e5760019150613226565b8473ffffffffffffffffffffffffffffffffffffffff1663150b7a02338887876040518563ffffffff167c0100000000000000000000000000000000000000000000000000000000028152600401808573ffffffffffffffffffffffffffffffffffffffff1673ffffffffffffffffffffffffffffffffffffffff1681526020018473ffffffffffffffffffffffffffffffffffffffff1673ffffffffffffffffffffffffffffffffffffffff16815260200183815260200180602001828103825283818151815260200191508051906020019080838360005b83811015613133578082015181840152602081019050613118565b50505050905090810190601f1680156131605780820380516001836020036101000a031916815260200191505b5095505050505050602060405180830381600087803b15801561318257600080fd5b505af1158015613196573d6000803e3d6000fd5b505050506040513d60208110156131ac57600080fd5b8101908080519060200190929190505050905063150b7a027c0100000000000000000000000000000000000000000000000000000000027bffffffffffffffffffffffffffffffffffffffffffffffffffffffff1916817bffffffffffffffffffffffffffffffffffffffffffffffffffffffff19161491505b50949350505050565b600080600b805490509150600b829080600181540180825580915050906001820390600052602060002001600090919290919091505550600a600083815260200190815260200160002090506132848461181a565b8160000160006101000a81548173ffffffffffffffffffffffffffffffffffffffff021916908373ffffffffffffffffffffffffffffffffffffffff1602179055506132cf8461181a565b6001600084815260200190815260200160002060006101000a81548173ffffffffffffffffffffffffffffffffffffffff021916908373ffffffffffffffffffffffffffffffffffffffff160217905550828160010190805190602001906133389291906134b6565b506004613343612f27565b111561336b5760018160020160006101000a81548160ff021916908315150217905550613389565b60008160020160006101000a81548160ff0219169083151502179055505b6000816003018190555061339b612f27565b600a6133a5612f27565b02018160040181905550806003015481600401540381600501819055504281600601819055507f3e6da5d534c8f4deb4a5b7d8dc92c2981457f15d8310bf6f69b126529c9976cc8160000160009054906101000a900473ffffffffffffffffffffffffffffffffffffffff1683604051808373ffffffffffffffffffffffffffffffffffffffff1673ffffffffffffffffffffffffffffffffffffffff1681526020018281526020019250505060405180910390a15050505050565b60008083831115151561347357600080fd5b82840390508091505092915050565b600080828401905083811015151561349957600080fd5b8091505092915050565b600080823b905060008111915050919050565b828054600181600116156101000203166002900490600052602060002090601f016020900481019282601f106134f757805160ff1916838001178555613525565b82800160010185558215613525579182015b82811115613524578251825591602001919060010190613509565b5b5090506135329190613536565b5090565b61355891905b8082111561355457600081600090555060010161353c565b5090565b905600a165627a7a723058209829cf2efbc0ab7e42c63f834328af387e6caf55a1cab189a388f72ab4294c960029",
  "source": "pragma solidity ^0.4.24;\r\n\r\nimport \"./token/ERC721/IERC721.sol\";\r\nimport \"./token/ERC721/IERC721Receiver.sol\";\r\nimport \"./math/SafeMath.sol\";\r\nimport \"./utils/Address.sol\";\r\nimport \"./introspection/ERC165.sol\";\r\n\r\n/**\r\n * @title ERC721 Non-Fungible Token Standard basic implementation\r\n * @dev see https://github.com/ethereum/EIPs/blob/master/EIPS/eip-721.md\r\n */\r\ncontract MarxCoin is ERC165, IERC721 {\r\n\r\n  using SafeMath for uint256;\r\n  using Address for address;\r\n\r\n  // Equals to `bytes4(keccak256(\"onERC721Received(address,address,uint256,bytes)\"))`\r\n  // which can be also obtained as `IERC721Receiver(0).onERC721Received.selector`\r\n  bytes4 private constant _ERC721_RECEIVED = 0x150b7a02;\r\n\r\n  // Mapping from token ID to owner\r\n  mapping (uint256 => address) private _tokenOwner;\r\n\r\n  // Mapping from token ID to approved address\r\n  mapping (uint256 => address) private _tokenApprovals;\r\n\r\n  // Mapping from owner to number of owned token\r\n  mapping (address => uint256) private _ownedTokensCount;\r\n\r\n  // Mapping from owner to operator approvals\r\n  mapping (address => mapping (address => bool)) private _operatorApprovals;\r\n\r\n  bytes4 private constant _InterfaceId_ERC721 = 0x80ac58cd;\r\n  /*\r\n   * 0x80ac58cd ===\r\n   *   bytes4(keccak256('balanceOf(address)')) ^\r\n   *   bytes4(keccak256('ownerOf(uint256)')) ^\r\n   *   bytes4(keccak256('approve(address,uint256)')) ^\r\n   *   bytes4(keccak256('getApproved(uint256)')) ^\r\n   *   bytes4(keccak256('setApprovalForAll(address,bool)')) ^\r\n   *   bytes4(keccak256('isApprovedForAll(address,address)')) ^\r\n   *   bytes4(keccak256('transferFrom(address,address,uint256)')) ^\r\n   *   bytes4(keccak256('safeTransferFrom(address,address,uint256)')) ^\r\n   *   bytes4(keccak256('safeTransferFrom(address,address,uint256,bytes)'))\r\n   */\r\n  mapping (address => bool) Komandarm;\r\n  address[] komandarmsAccs;\r\n  address public Stalin;\r\n  address public Arena;\r\n  struct citizen{\r\n    address owner;\r\n    string name;\r\n    bool isMale;\r\n    uint256 age;\r\n    uint256 strength;\r\n    uint256 hunger;\r\n    uint declarationDate;\r\n    }\r\n  struct Offer{\r\n    address sender;\r\n    address recipient;\r\n    uint256 senderCitID;\r\n    uint256 recipientCitID;\r\n    bool fightOrBreed; //true == fight ; false == breed;\r\n\r\n  }\r\n  struct inbox{\r\n    address owner;\r\n    mapping (uint256 => Offer) offers;\r\n    uint256[] offersID;\r\n  }\r\n  mapping (address => inbox) postOffice;\r\n\r\n  mapping (uint256 => citizen) public Komrads;\r\n  uint256[] ids;\r\n  uint256[] pi = [3,1,4,1,5,9,2,6,5,3,5,8,9,7,9,3,2,3,8,4,6,2,6,4,3,3,8,3,2,7,9,5,0,2,8,8,4,0,1,9,7,1,6,9,3,9,9,3,7,5,1,0];\r\n  uint256 count;\r\n\r\n  string Breed = \"Breed\";\r\n  string Fight = \"Fight\";\r\n\r\n  event result(address owner, uint256 Id);\r\n\r\n  constructor()\r\n    public\r\n  {\r\n    // register the supported interfaces to conform to ERC721 via ERC165\r\n    _registerInterface(_InterfaceId_ERC721);\r\n    Stalin = msg.sender;\r\n    count = 0;\r\n    addKomandarm(Stalin);\r\n    declareCitizen(\"Dimitri\", true, 38, 40, 0);\r\n    declareCitizen(\"Svetlana\", false, 38, 40, 0);\r\n  }\r\n\r\n  /**\r\n   * @dev Gets the balance of the specified address\r\n   * @param owner address to query the balance of\r\n   * @return uint256 representing the amount owned by the passed address\r\n   */\r\n  function balanceOf(address owner) public view returns (uint256) {\r\n    require(owner != address(0));\r\n    return _ownedTokensCount[owner];\r\n  }\r\n\r\n  function viewCitizens(address owner) public view returns (uint256[]){\r\n    uint256[] citizens;\r\n    for (uint256 i = 0 ; i < ids.length ; i++){\r\n      if(Komrads[ids[i]].owner == owner){\r\n        citizens.push(ids[i]);\r\n      }\r\n    }\r\n    return citizens;\r\n\r\n  }\r\n\r\n  /**\r\n   * @dev Gets the owner of the specified token ID\r\n   * @param tokenId uint256 ID of the token to query the owner of\r\n   * @return owner address currently marked as the owner of the given token ID\r\n   */\r\n  function ownerOf(uint256 tokenId) public view returns (address) {\r\n    address owner = _tokenOwner[tokenId];\r\n    require(owner != address(0));\r\n    return owner;\r\n  }\r\n\r\n  /**\r\n   * @dev Approves another address to transfer the given token ID\r\n   * The zero address indicates there is no approved address.\r\n   * There can only be one approved address per token at a given time.\r\n   * Can only be called by the token owner or an approved operator.\r\n   * @param to address to be approved for the given token ID\r\n   * @param tokenId uint256 ID of the token to be approved\r\n   */\r\n  function approve(address to, uint256 tokenId) public {\r\n    address owner = ownerOf(tokenId);\r\n    require(to != owner);\r\n    require(msg.sender == owner || isApprovedForAll(owner, msg.sender));\r\n\r\n    _tokenApprovals[tokenId] = to;\r\n    emit Approval(owner, to, tokenId);\r\n  }\r\n\r\n  /**\r\n   * @dev Gets the approved address for a token ID, or zero if no address set\r\n   * Reverts if the token ID does not exist.\r\n   * @param tokenId uint256 ID of the token to query the approval of\r\n   * @return address currently approved for the given token ID\r\n   */\r\n  function getApproved(uint256 tokenId) public view returns (address) {\r\n    require(_exists(tokenId));\r\n    return _tokenApprovals[tokenId];\r\n  }\r\n\r\n  /**\r\n   * @dev Sets or unsets the approval of a given operator\r\n   * An operator is allowed to transfer all tokens of the sender on their behalf\r\n   * @param to operator address to set the approval\r\n   * @param approved representing the status of the approval to be set\r\n   */\r\n  function setApprovalForAll(address to, bool approved) public {\r\n    require(to != msg.sender);\r\n    _operatorApprovals[msg.sender][to] = approved;\r\n    emit ApprovalForAll(msg.sender, to, approved);\r\n  }\r\n\r\n  /**\r\n   * @dev Tells whether an operator is approved by a given owner\r\n   * @param owner owner address which you want to query the approval of\r\n   * @param operator operator address which you want to query the approval of\r\n   * @return bool whether the given operator is approved by the given owner\r\n   */\r\n  function isApprovedForAll(\r\n    address owner,\r\n    address operator\r\n  )\r\n    public\r\n    view\r\n    returns (bool)\r\n  {\r\n    return _operatorApprovals[owner][operator];\r\n  }\r\n\r\n  /**\r\n   * @dev Transfers the ownership of a given token ID to another address\r\n   * Usage of this method is discouraged, use `safeTransferFrom` whenever possible\r\n   * Requires the msg sender to be the owner, approved, or operator\r\n   * @param from current owner of the token\r\n   * @param to address to receive the ownership of the given token ID\r\n   * @param tokenId uint256 ID of the token to be transferred\r\n  */\r\n  function transferFrom(\r\n    address from,\r\n    address to,\r\n    uint256 tokenId\r\n  )\r\n    public\r\n  {\r\n    require(_isApprovedOrOwner(msg.sender, tokenId));\r\n    require(to != address(0));\r\n\r\n    _clearApproval(from, tokenId);\r\n    _removeTokenFrom(from, tokenId);\r\n    _addTokenTo(to, tokenId);\r\n\r\n    emit Transfer(from, to, tokenId);\r\n  }\r\n\r\n  /**\r\n   * @dev Safely transfers the ownership of a given token ID to another address\r\n   * If the target address is a contract, it must implement `onERC721Received`,\r\n   * which is called upon a safe transfer, and return the magic value\r\n   * `bytes4(keccak256(\"onERC721Received(address,address,uint256,bytes)\"))`; otherwise,\r\n   * the transfer is reverted.\r\n   *\r\n   * Requires the msg sender to be the owner, approved, or operator\r\n   * @param from current owner of the token\r\n   * @param to address to receive the ownership of the given token ID\r\n   * @param tokenId uint256 ID of the token to be transferred\r\n  */\r\n  function safeTransferFrom(\r\n    address from,\r\n    address to,\r\n    uint256 tokenId\r\n  )\r\n    public\r\n  {\r\n    // solium-disable-next-line arg-overflow\r\n    safeTransferFrom(from, to, tokenId, \"\");\r\n  }\r\n\r\n  /**\r\n   * @dev Safely transfers the ownership of a given token ID to another address\r\n   * If the target address is a contract, it must implement `onERC721Received`,\r\n   * which is called upon a safe transfer, and return the magic value\r\n   * `bytes4(keccak256(\"onERC721Received(address,address,uint256,bytes)\"))`; otherwise,\r\n   * the transfer is reverted.\r\n   * Requires the msg sender to be the owner, approved, or operator\r\n   * @param from current owner of the token\r\n   * @param to address to receive the ownership of the given token ID\r\n   * @param tokenId uint256 ID of the token to be transferred\r\n   * @param _data bytes data to send along with a safe transfer check\r\n   */\r\n  function safeTransferFrom(\r\n    address from,\r\n    address to,\r\n    uint256 tokenId,\r\n    bytes _data\r\n  )\r\n    public\r\n  {\r\n    transferFrom(from, to, tokenId);\r\n    // solium-disable-next-line arg-overflow\r\n    require(_checkOnERC721Received(from, to, tokenId, _data));\r\n  }\r\n\r\n  /**\r\n   * @dev Returns whether the specified token exists\r\n   * @param tokenId uint256 ID of the token to query the existence of\r\n   * @return whether the token exists\r\n   */\r\n  function _exists(uint256 tokenId) internal view returns (bool) {\r\n    address owner = _tokenOwner[tokenId];\r\n    return owner != address(0);\r\n  }\r\n\r\n  /**\r\n   * @dev Returns whether the given spender can transfer a given token ID\r\n   * @param spender address of the spender to query\r\n   * @param tokenId uint256 ID of the token to be transferred\r\n   * @return bool whether the msg.sender is approved for the given token ID,\r\n   *  is an operator of the owner, or is the owner of the token\r\n   */\r\n  function _isApprovedOrOwner(\r\n    address spender,\r\n    uint256 tokenId\r\n  )\r\n    internal\r\n    view\r\n    returns (bool)\r\n  {\r\n    address owner = ownerOf(tokenId);\r\n    // Disable solium check because of\r\n    // https://github.com/duaraghav8/Solium/issues/175\r\n    // solium-disable-next-line operator-whitespace\r\n    return (\r\n      spender == owner ||\r\n      getApproved(tokenId) == spender ||\r\n      isApprovedForAll(owner, spender)\r\n    );\r\n  }\r\n\r\n  /**\r\n   * @dev Internal function to mint a new token\r\n   * Reverts if the given token ID already exists\r\n   * @param to The address that will own the minted token\r\n   * @param tokenId uint256 ID of the token to be minted by the msg.sender\r\n   */\r\n  function _mint(address to, uint256 tokenId) internal {\r\n    require(to != address(0));\r\n    _addTokenTo(to, tokenId);\r\n    emit Transfer(address(0), to, tokenId);\r\n  }\r\n\r\n  /**\r\n   * @dev Internal function to burn a specific token\r\n   * Reverts if the token does not exist\r\n   * @param tokenId uint256 ID of the token being burned by the msg.sender\r\n   */\r\n  function _burn(address owner, uint256 tokenId) internal {\r\n    _clearApproval(owner, tokenId);\r\n    _removeTokenFrom(owner, tokenId);\r\n    emit Transfer(owner, address(0), tokenId);\r\n  }\r\n\r\n  /**\r\n   * @dev Internal function to add a token ID to the list of a given address\r\n   * Note that this function is left internal to make ERC721Enumerable possible, but is not\r\n   * intended to be called by custom derived contracts: in particular, it emits no Transfer event.\r\n   * @param to address representing the new owner of the given token ID\r\n   * @param tokenId uint256 ID of the token to be added to the tokens list of the given address\r\n   */\r\n  function _addTokenTo(address to, uint256 tokenId) internal {\r\n    require(_tokenOwner[tokenId] == address(0));\r\n    _tokenOwner[tokenId] = to;\r\n    _ownedTokensCount[to] = _ownedTokensCount[to].add(1);\r\n  }\r\n\r\n  /**\r\n   * @dev Internal function to remove a token ID from the list of a given address\r\n   * Note that this function is left internal to make ERC721Enumerable possible, but is not\r\n   * intended to be called by custom derived contracts: in particular, it emits no Transfer event,\r\n   * and doesn't clear approvals.\r\n   * @param from address representing the previous owner of the given token ID\r\n   * @param tokenId uint256 ID of the token to be removed from the tokens list of the given address\r\n   */\r\n  function _removeTokenFrom(address from, uint256 tokenId) internal {\r\n    require(ownerOf(tokenId) == from);\r\n    _ownedTokensCount[from] = _ownedTokensCount[from].sub(1);\r\n    _tokenOwner[tokenId] = address(0);\r\n  }\r\n\r\n  /**\r\n   * @dev Internal function to invoke `onERC721Received` on a target address\r\n   * The call is not executed if the target address is not a contract\r\n   * @param from address representing the previous owner of the given token ID\r\n   * @param to target address that will receive the tokens\r\n   * @param tokenId uint256 ID of the token to be transferred\r\n   * @param _data bytes optional data to send along with the call\r\n   * @return whether the call correctly returned the expected magic value\r\n   */\r\n  function _checkOnERC721Received(\r\n    address from,\r\n    address to,\r\n    uint256 tokenId,\r\n    bytes _data\r\n  )\r\n    internal\r\n    returns (bool)\r\n  {\r\n    if (!to.isContract()) {\r\n      return true;\r\n    }\r\n    bytes4 retval = IERC721Receiver(to).onERC721Received(\r\n      msg.sender, from, tokenId, _data);\r\n    return (retval == _ERC721_RECEIVED);\r\n  }\r\n\r\n  /**\r\n   * @dev Private function to clear current approval of a given token ID\r\n   * Reverts if the given address is not indeed the owner of the token\r\n   * @param owner owner of the token\r\n   * @param tokenId uint256 ID of the token to be transferred\r\n   */\r\n  function _clearApproval(address owner, uint256 tokenId) private {\r\n    require(ownerOf(tokenId) == owner);\r\n    if (_tokenApprovals[tokenId] != address(0)) {\r\n      _tokenApprovals[tokenId] = address(0);\r\n    }\r\n  }\r\n\r\n  //takes a number from the 50 first decimals of pi\r\n  //not true random, can easily be predicted if you count the transactions\r\n  function fakeRand() internal returns(uint256){\r\n    if (count==51){\r\n      count=0;\r\n    }\r\n    return pi[count];\r\n  }\r\n  //Declare a new Komandarm to monitor the actions of the citizens of the motherland\r\n  function addKomandarm(address _new) public returns (bool success){\r\n        require(msg.sender == Stalin);\r\n        Komandarm[_new] = true;\r\n        komandarmsAccs.push(_new);\r\n        return true;\r\n  }\r\n\r\n  function declareCitizen(string _name, bool _isMale, uint256 _age, uint256 _strength, uint256 _hunger) public returns (bool success){\r\n    require(Komandarm[msg.sender] == true);\r\n    uint256 id = ids.length;\r\n    _tokenOwner[id] = msg.sender;\r\n    ids.push(id);\r\n    citizen newCitizen = Komrads[id];\r\n    newCitizen.owner = msg.sender;\r\n    newCitizen.name = _name;\r\n    newCitizen.isMale = _isMale;\r\n    newCitizen.age = _age;\r\n    newCitizen.strength = _strength;\r\n    newCitizen.hunger = _hunger;\r\n    newCitizen.declarationDate = block.timestamp;\r\n    result(msg.sender, id);\r\n    return true;\r\n  }\r\n  function death(uint256 _id) public returns (bool success){\r\n    require(msg.sender==ownerOf(_id));\r\n    _burn(ownerOf(_id),_id);\r\n    return true;\r\n\r\n  }\r\n  //is equivalent to death\r\n  function gulag(uint256 _id) public returns (bool success){\r\n    _burn(ownerOf(_id),_id);\r\n    return true;\r\n  }\r\n\r\n  function babyProletarian(uint256 _id1,uint256 _id2,string _name)  private {\r\n    uint256 id = ids.length;\r\n    ids.push(id);\r\n    citizen newCitizen = Komrads[id];\r\n    newCitizen.owner = ownerOf(_id2);\r\n    _tokenOwner[id] = ownerOf(_id2);\r\n    newCitizen.name = _name;\r\n    if(fakeRand()>4){\r\n      newCitizen.isMale = true;\r\n    }\r\n    else{\r\n      newCitizen.isMale = false;\r\n    }\r\n    newCitizen.age = 0;\r\n    newCitizen.strength = fakeRand() * 10 + fakeRand();\r\n    newCitizen.hunger = newCitizen.strength - newCitizen.age ;\r\n    newCitizen.declarationDate = block.timestamp;\r\n    result(newCitizen.owner, id);\r\n  }\r\n\r\n  function reproduce(uint256 _id1, uint256 _id2, string _name1, string _name2)public {\r\n    babyProletarian(_id1,_id2,_name2);\r\n    babyProletarian(_id2,_id1,_name1);\r\n\r\n  }\r\n\r\n   function spawn(string _name, address _owner)  public returns (uint256 babyId){\r\n    uint256 id = ids.length;\r\n    ids.push(id);\r\n    citizen newCitizen = Komrads[id];\r\n    newCitizen.owner = _owner;\r\n    newCitizen.name = _name;\r\n    if(fakeRand()>4){\r\n      newCitizen.isMale = true;\r\n    }\r\n    else{\r\n      newCitizen.isMale = false;\r\n    }\r\n    newCitizen.age = fakeRand() * (fakeRand() + 1);\r\n    newCitizen.strength = fakeRand() * 10 + fakeRand();\r\n    newCitizen.hunger = newCitizen.strength - newCitizen.age ;\r\n    newCitizen.declarationDate = block.timestamp;\r\n    return id;\r\n  }\r\n\r\n  function aging(uint256 _id) internal returns (bool success){\r\n    citizen citizenToUpdate = Komrads[_id];\r\n    citizenToUpdate.age = now - citizenToUpdate.declarationDate;\r\n    if(citizenToUpdate.age > 80 * 252455616){//80 years in seconds\r\n      if(citizenToUpdate.age >= 90 * 252455616){\r\n        _burn(ownerOf(_id),_id);\r\n        return false;\r\n      }\r\n      else{\r\n        if(fakeRand() < (citizenToUpdate.age - 80 * 252455616)){\r\n          _burn(ownerOf(_id),_id);\r\n          return false;\r\n        }\r\n      }\r\n    }\r\n    else{\r\n          return true;\r\n    }\r\n  }\r\n  function update(uint256 _id)public returns (bool success){\r\n    return aging(_id);\r\n  }\r\n\r\n  function viewStats(uint256 _id)public view returns(bool success, string name, uint256 age, bool isMale, uint256 strength, uint256 hunger){\r\n    aging(_id);\r\n    return(true , Komrads[_id].name , Komrads[_id].age , Komrads[_id].isMale , Komrads[_id].strength , Komrads[_id].hunger);\r\n  }\r\n\r\n  function viewInbox() public view returns (uint256[] _offers) {\r\n    \r\n    return \r\n    postOffice[msg.sender].offersID;\r\n    \r\n  }\r\n\r\n  function viewOffer(uint256 _offerID) public view returns (address _sender, uint256 _theirChamp, uint256 _myChamp, string fightOrBreed){\r\n    string _fightOrBreed = Breed;\r\n    if(postOffice[msg.sender].offers[_offerID].fightOrBreed == true){\r\n      _fightOrBreed = Fight;\r\n    }\r\n    return (postOffice[msg.sender].offers[_offerID].sender, postOffice[msg.sender].offers[_offerID].senderCitID, postOffice[msg.sender].offers[_offerID].recipientCitID, _fightOrBreed);\r\n\r\n  }\r\n\r\n\r\n\r\n\r\n  function proposeFight(address _adversary, uint256 _myChamp, uint256 _theirChamp) public {\r\n    require(Komrads[_myChamp].owner == msg.sender);\r\n    require(Komrads[_theirChamp].owner == _adversary);\r\n\r\n    Offer newOffer = postOffice[_adversary].offers[postOffice[_adversary].offersID.length];\r\n    postOffice[_adversary].offersID.push(postOffice[_adversary].offersID.length);\r\n\r\n    newOffer.sender = msg.sender;\r\n    newOffer.recipient = _adversary;\r\n    newOffer.senderCitID = _myChamp;\r\n    newOffer.recipientCitID = _theirChamp;\r\n    newOffer.fightOrBreed = true  ;\r\n\r\n  }\r\n\r\n  function proposeBreed(address _adversary, uint256 _myChamp, uint256 _theirChamp) public {\r\n    require(Komrads[_myChamp].owner == msg.sender);\r\n    require(Komrads[_theirChamp].owner == _adversary);\r\n    require(Komrads[_myChamp].isMale != Komrads[_theirChamp].isMale);\r\n\r\n    Offer newOffer = postOffice[_adversary].offers[postOffice[_adversary].offersID.length];\r\n    postOffice[_adversary].offersID.push(postOffice[_adversary].offersID.length);\r\n\r\n    newOffer.sender = msg.sender;\r\n    newOffer.recipient = _adversary;\r\n    newOffer.senderCitID = _myChamp;\r\n    newOffer.recipientCitID = _theirChamp;\r\n    newOffer.fightOrBreed = false ;\r\n\r\n  }\r\n\r\n  function acceptFight(uint256 _offerId) public {\r\n    if(postOffice [msg.sender].offers[_offerId].fightOrBreed == true){\r\n        uint256 win = fight(postOffice[msg.sender].offers[_offerId].senderCitID, postOffice[msg.sender].offers[_offerId].recipientCitID);\r\n        result(ownerOf(win), win);\r\n      }\r\n  }\r\n  function acceptBreed(uint256 _offerId, string _name1, string _name2) public {\r\n    require (postOffice [msg.sender].offers[_offerId].fightOrBreed == false);\r\n    reproduce(postOffice[msg.sender].offers[_offerId].senderCitID, postOffice[msg.sender].offers[_offerId].recipientCitID, _name1, _name2);\r\n  }\r\n\r\n  function fight(uint256 _id1, uint256 _id2) private returns(uint256 _idWinner){\r\n    if(Komrads[_id1].strength * fakeRand() > Komrads[_id2].strength * fakeRand()){\r\n      return _id1;\r\n    }\r\n    else{\r\n      return _id2;\r\n    }\r\n  }\r\n\r\n\r\n  /*\r\n  function reproduce(){\r\n  baby(id2,id1);\r\n  baby(id1,id2);\r\n  }\r\n  function askToReproduce(uint256 _idOwn, address _otherOwner, uint256 _idOther) public returns(bool success){}\r\n  */\r\n}\r\n",
  "sourcePath": "C:\\Users\\Ewan Debove\\desktop\\blockchain\\td6\\contracts\\MarxCoin.sol",
  "compiler": {
    "name": "solc",
    "version": "0.4.25+commit.59dbf8f1.Emscripten.clang"
  },
  "schemaVersion": "2.0.2",
  "updatedAt": "2019-03-17T15:55:01.227Z"
}