{
  "contractName": "MarxCoin",
  "abi": [
    {
      "constant": true,
      "inputs": [
        {
          "name": "interfaceId",
          "type": "bytes4"
        }
      ],
      "name": "supportsInterface",
      "outputs": [
        {
          "name": "",
          "type": "bool"
        }
      ],
      "payable": false,
      "stateMutability": "view",
      "type": "function"
    },
    {
      "constant": true,
      "inputs": [],
      "name": "Stalin",
      "outputs": [
        {
          "name": "",
          "type": "address"
        }
      ],
      "payable": false,
      "stateMutability": "view",
      "type": "function"
    },
    {
      "inputs": [],
      "payable": false,
      "stateMutability": "nonpayable",
      "type": "constructor"
    },
    {
      "anonymous": false,
      "inputs": [
        {
          "indexed": true,
          "name": "from",
          "type": "address"
        },
        {
          "indexed": true,
          "name": "to",
          "type": "address"
        },
        {
          "indexed": true,
          "name": "tokenId",
          "type": "uint256"
        }
      ],
      "name": "Transfer",
      "type": "event"
    },
    {
      "anonymous": false,
      "inputs": [
        {
          "indexed": true,
          "name": "owner",
          "type": "address"
        },
        {
          "indexed": true,
          "name": "approved",
          "type": "address"
        },
        {
          "indexed": true,
          "name": "tokenId",
          "type": "uint256"
        }
      ],
      "name": "Approval",
      "type": "event"
    },
    {
      "anonymous": false,
      "inputs": [
        {
          "indexed": true,
          "name": "owner",
          "type": "address"
        },
        {
          "indexed": true,
          "name": "operator",
          "type": "address"
        },
        {
          "indexed": false,
          "name": "approved",
          "type": "bool"
        }
      ],
      "name": "ApprovalForAll",
      "type": "event"
    },
    {
      "constant": true,
      "inputs": [
        {
          "name": "owner",
          "type": "address"
        }
      ],
      "name": "balanceOf",
      "outputs": [
        {
          "name": "",
          "type": "uint256"
        }
      ],
      "payable": false,
      "stateMutability": "view",
      "type": "function"
    },
    {
      "constant": true,
      "inputs": [
        {
          "name": "owner",
          "type": "address"
        }
      ],
      "name": "viewCitizens",
      "outputs": [
        {
          "name": "",
          "type": "uint256[]"
        }
      ],
      "payable": false,
      "stateMutability": "view",
      "type": "function"
    },
    {
      "constant": true,
      "inputs": [
        {
          "name": "tokenId",
          "type": "uint256"
        }
      ],
      "name": "ownerOf",
      "outputs": [
        {
          "name": "",
          "type": "address"
        }
      ],
      "payable": false,
      "stateMutability": "view",
      "type": "function"
    },
    {
      "constant": false,
      "inputs": [
        {
          "name": "to",
          "type": "address"
        },
        {
          "name": "tokenId",
          "type": "uint256"
        }
      ],
      "name": "approve",
      "outputs": [],
      "payable": false,
      "stateMutability": "nonpayable",
      "type": "function"
    },
    {
      "constant": true,
      "inputs": [
        {
          "name": "tokenId",
          "type": "uint256"
        }
      ],
      "name": "getApproved",
      "outputs": [
        {
          "name": "",
          "type": "address"
        }
      ],
      "payable": false,
      "stateMutability": "view",
      "type": "function"
    },
    {
      "constant": false,
      "inputs": [
        {
          "name": "to",
          "type": "address"
        },
        {
          "name": "approved",
          "type": "bool"
        }
      ],
      "name": "setApprovalForAll",
      "outputs": [],
      "payable": false,
      "stateMutability": "nonpayable",
      "type": "function"
    },
    {
      "constant": true,
      "inputs": [
        {
          "name": "owner",
          "type": "address"
        },
        {
          "name": "operator",
          "type": "address"
        }
      ],
      "name": "isApprovedForAll",
      "outputs": [
        {
          "name": "",
          "type": "bool"
        }
      ],
      "payable": false,
      "stateMutability": "view",
      "type": "function"
    },
    {
      "constant": false,
      "inputs": [
        {
          "name": "from",
          "type": "address"
        },
        {
          "name": "to",
          "type": "address"
        },
        {
          "name": "tokenId",
          "type": "uint256"
        }
      ],
      "name": "transferFrom",
      "outputs": [],
      "payable": false,
      "stateMutability": "nonpayable",
      "type": "function"
    },
    {
      "constant": false,
      "inputs": [
        {
          "name": "from",
          "type": "address"
        },
        {
          "name": "to",
          "type": "address"
        },
        {
          "name": "tokenId",
          "type": "uint256"
        }
      ],
      "name": "safeTransferFrom",
      "outputs": [],
      "payable": false,
      "stateMutability": "nonpayable",
      "type": "function"
    },
    {
      "constant": false,
      "inputs": [
        {
          "name": "from",
          "type": "address"
        },
        {
          "name": "to",
          "type": "address"
        },
        {
          "name": "tokenId",
          "type": "uint256"
        },
        {
          "name": "_data",
          "type": "bytes"
        }
      ],
      "name": "safeTransferFrom",
      "outputs": [],
      "payable": false,
      "stateMutability": "nonpayable",
      "type": "function"
    },
    {
      "constant": false,
      "inputs": [
        {
          "name": "_new",
          "type": "address"
        }
      ],
      "name": "addKomandarm",
      "outputs": [
        {
          "name": "success",
          "type": "bool"
        }
      ],
      "payable": false,
      "stateMutability": "nonpayable",
      "type": "function"
    },
    {
      "constant": false,
      "inputs": [
        {
          "name": "_name",
          "type": "string"
        },
        {
          "name": "_isMale",
          "type": "bool"
        },
        {
          "name": "_age",
          "type": "uint256"
        },
        {
          "name": "_strength",
          "type": "uint256"
        },
        {
          "name": "_hunger",
          "type": "uint256"
        }
      ],
      "name": "declareCitizen",
      "outputs": [
        {
          "name": "success",
          "type": "bool"
        }
      ],
      "payable": false,
      "stateMutability": "nonpayable",
      "type": "function"
    },
    {
      "constant": false,
      "inputs": [
        {
          "name": "_id",
          "type": "uint256"
        }
      ],
      "name": "death",
      "outputs": [
        {
          "name": "success",
          "type": "bool"
        }
      ],
      "payable": false,
      "stateMutability": "nonpayable",
      "type": "function"
    },
    {
      "constant": false,
      "inputs": [
        {
          "name": "_id",
          "type": "uint256"
        }
      ],
      "name": "gulag",
      "outputs": [
        {
          "name": "success",
          "type": "bool"
        }
      ],
      "payable": false,
      "stateMutability": "nonpayable",
      "type": "function"
    },
    {
      "constant": false,
      "inputs": [
        {
          "name": "_id1",
          "type": "uint256"
        },
        {
          "name": "_id2",
          "type": "uint256"
        },
        {
          "name": "_name",
          "type": "string"
        }
      ],
      "name": "babyProletarian",
      "outputs": [
        {
          "name": "babyId",
          "type": "uint256"
        }
      ],
      "payable": false,
      "stateMutability": "nonpayable",
      "type": "function"
    },
    {
      "constant": false,
      "inputs": [
        {
          "name": "_name",
          "type": "string"
        },
        {
          "name": "_owner",
          "type": "address"
        }
      ],
      "name": "spawn",
      "outputs": [
        {
          "name": "babyId",
          "type": "uint256"
        }
      ],
      "payable": false,
      "stateMutability": "nonpayable",
      "type": "function"
    },
    {
      "constant": false,
      "inputs": [
        {
          "name": "_id",
          "type": "uint256"
        }
      ],
      "name": "update",
      "outputs": [
        {
          "name": "success",
          "type": "bool"
        }
      ],
      "payable": false,
      "stateMutability": "nonpayable",
      "type": "function"
    },
    {
      "constant": false,
      "inputs": [
        {
          "name": "_id",
          "type": "uint256"
        }
      ],
      "name": "viewStats",
      "outputs": [
        {
          "name": "success",
          "type": "bool"
        },
        {
          "name": "name",
          "type": "string"
        },
        {
          "name": "age",
          "type": "uint256"
        },
        {
          "name": "isMale",
          "type": "bool"
        },
        {
          "name": "strength",
          "type": "uint256"
        },
        {
          "name": "hunger",
          "type": "uint256"
        }
      ],
      "payable": false,
      "stateMutability": "nonpayable",
      "type": "function"
    }
  ],
  "bytecode": "0x608060405261068060405190810160405280600360ff168152602001600160ff168152602001600460ff168152602001600160ff168152602001600560ff168152602001600960ff168152602001600260ff168152602001600660ff168152602001600560ff168152602001600360ff168152602001600560ff168152602001600860ff168152602001600960ff168152602001600760ff168152602001600960ff168152602001600360ff168152602001600260ff168152602001600360ff168152602001600860ff168152602001600460ff168152602001600660ff168152602001600260ff168152602001600660ff168152602001600460ff168152602001600360ff168152602001600360ff168152602001600860ff168152602001600360ff168152602001600260ff168152602001600760ff168152602001600960ff168152602001600560ff168152602001600060ff168152602001600260ff168152602001600860ff168152602001600860ff168152602001600460ff168152602001600060ff168152602001600160ff168152602001600960ff168152602001600760ff168152602001600160ff168152602001600660ff168152602001600960ff168152602001600360ff168152602001600960ff168152602001600960ff168152602001600360ff168152602001600760ff168152602001600560ff168152602001600160ff168152602001600060ff16815250600a906034620002299291906200077f565b503480156200023757600080fd5b50620002756301ffc9a77c010000000000000000000000000000000000000000000000000000000002620003ee640100000000026401000000009004565b620002b26380ac58cd7c010000000000000000000000000000000000000000000000000000000002620003ee640100000000026401000000009004565b33600760006101000a81548173ffffffffffffffffffffffffffffffffffffffff021916908373ffffffffffffffffffffffffffffffffffffffff1602179055506000600b8190555062000337600760009054906101000a900473ffffffffffffffffffffffffffffffffffffffff16620004ac640100000000026401000000009004565b506200038f6040805190810160405280600781526020017f44696d69747269000000000000000000000000000000000000000000000000008152506001602660286000620005d2640100000000026401000000009004565b50620003e76040805190810160405280600881526020017f537665746c616e610000000000000000000000000000000000000000000000008152506000602660286000620005d2640100000000026401000000009004565b5062000885565b63ffffffff7c010000000000000000000000000000000000000000000000000000000002817bffffffffffffffffffffffffffffffffffffffffffffffffffffffff1916141515156200044057600080fd5b6001600080837bffffffffffffffffffffffffffffffffffffffffffffffffffffffff19167bffffffffffffffffffffffffffffffffffffffffffffffffffffffff1916815260200190815260200160002060006101000a81548160ff02191690831515021790555050565b6000600760009054906101000a900473ffffffffffffffffffffffffffffffffffffffff1673ffffffffffffffffffffffffffffffffffffffff163373ffffffffffffffffffffffffffffffffffffffff161415156200050b57600080fd5b6001600560008473ffffffffffffffffffffffffffffffffffffffff1673ffffffffffffffffffffffffffffffffffffffff16815260200190815260200160002060006101000a81548160ff02191690831515021790555060068290806001815401808255809150509060018203906000526020600020016000909192909190916101000a81548173ffffffffffffffffffffffffffffffffffffffff021916908373ffffffffffffffffffffffffffffffffffffffff1602179055505060019050919050565b600080600060011515600560003373ffffffffffffffffffffffffffffffffffffffff1673ffffffffffffffffffffffffffffffffffffffff16815260200190815260200160002060009054906101000a900460ff1615151415156200063757600080fd5b6009805490509150336001600084815260200190815260200160002060006101000a81548173ffffffffffffffffffffffffffffffffffffffff021916908373ffffffffffffffffffffffffffffffffffffffff1602179055506009829080600181540180825580915050906001820390600052602060002001600090919290919091505550600860008381526020019081526020016000209050338160000160006101000a81548173ffffffffffffffffffffffffffffffffffffffff021916908373ffffffffffffffffffffffffffffffffffffffff160217905550878160010190805190602001906200072f929190620007d6565b50868160020160006101000a81548160ff02191690831515021790555085816003018190555084816004018190555083816005018190555042816006018190555060019250505095945050505050565b828054828255906000526020600020908101928215620007c3579160200282015b82811115620007c2578251829060ff16905591602001919060010190620007a0565b5b509050620007d291906200085d565b5090565b828054600181600116156101000203166002900490600052602060002090601f016020900481019282601f106200081957805160ff19168380011785556200084a565b828001600101855582156200084a579182015b82811115620008495782518255916020019190600101906200082c565b5b5090506200085991906200085d565b5090565b6200088291905b808211156200087e57600081600090555060010162000864565b5090565b90565b61223c80620008956000396000f300608060405260043610610111576000357c0100000000000000000000000000000000000000000000000000000000900463ffffffff168062192f631461011657806301ffc9a71461015b578063081812fc146101bf578063095ea7b31461022c57806323b872dd146102795780632c0a6cfd146102e657806342421f901461039157806342842e0e146103e85780635fbe2949146104555780636352211e146104f257806370a082311461055f5780637dea4844146105b657806382ab890a146105fb5780639d12c4b414610640578063a22cb465146106d8578063b5a54fb114610727578063b88d4fde146107b8578063e1c96c671461086b578063e726ff50146108c6578063e985e9c514610997575b600080fd5b34801561012257600080fd5b5061014160048036038101908080359060200190929190505050610a12565b604051808215151515815260200191505060405180910390f35b34801561016757600080fd5b506101a560048036038101908080357bffffffffffffffffffffffffffffffffffffffffffffffffffffffff19169060200190929190505050610a71565b604051808215151515815260200191505060405180910390f35b3480156101cb57600080fd5b506101ea60048036038101908080359060200190929190505050610ad8565b604051808273ffffffffffffffffffffffffffffffffffffffff1673ffffffffffffffffffffffffffffffffffffffff16815260200191505060405180910390f35b34801561023857600080fd5b50610277600480360381019080803573ffffffffffffffffffffffffffffffffffffffff16906020019092919080359060200190929190505050610b29565b005b34801561028557600080fd5b506102e4600480360381019080803573ffffffffffffffffffffffffffffffffffffffff169060200190929190803573ffffffffffffffffffffffffffffffffffffffff16906020019092919080359060200190929190505050610c6e565b005b3480156102f257600080fd5b50610377600480360381019080803590602001908201803590602001908080601f0160208091040260200160405190810160405280939291908181526020018383808284378201915050505050509192919290803515159060200190929190803590602001909291908035906020019092919080359060200190929190505050610d3d565b604051808215151515815260200191505060405180910390f35b34801561039d57600080fd5b506103a6610ee7565b604051808273ffffffffffffffffffffffffffffffffffffffff1673ffffffffffffffffffffffffffffffffffffffff16815260200191505060405180910390f35b3480156103f457600080fd5b50610453600480360381019080803573ffffffffffffffffffffffffffffffffffffffff169060200190929190803573ffffffffffffffffffffffffffffffffffffffff16906020019092919080359060200190929190505050610f0d565b005b34801561046157600080fd5b506104dc600480360381019080803590602001908201803590602001908080601f0160208091040260200160405190810160405280939291908181526020018383808284378201915050505050509192919290803573ffffffffffffffffffffffffffffffffffffffff169060200190929190505050610f2e565b6040518082815260200191505060405180910390f35b3480156104fe57600080fd5b5061051d60048036038101908080359060200190929190505050611084565b604051808273ffffffffffffffffffffffffffffffffffffffff1673ffffffffffffffffffffffffffffffffffffffff16815260200191505060405180910390f35b34801561056b57600080fd5b506105a0600480360381019080803573ffffffffffffffffffffffffffffffffffffffff169060200190929190505050611102565b6040518082815260200191505060405180910390f35b3480156105c257600080fd5b506105e160048036038101908080359060200190929190505050611186565b604051808215151515815260200191505060405180910390f35b34801561060757600080fd5b50610626600480360381019080803590602001909291905050506111a3565b604051808215151515815260200191505060405180910390f35b34801561064c57600080fd5b50610681600480360381019080803573ffffffffffffffffffffffffffffffffffffffff1690602001909291905050506111b5565b6040518080602001828103825283818151815260200191508051906020019060200280838360005b838110156106c45780820151818401526020810190506106a9565b505050509050019250505060405180910390f35b3480156106e457600080fd5b50610725600480360381019080803573ffffffffffffffffffffffffffffffffffffffff1690602001909291908035151590602001909291905050506112fa565b005b34801561073357600080fd5b506107a26004803603810190808035906020019092919080359060200190929190803590602001908201803590602001908080601f0160208091040260200160405190810160405280939291908181526020018383808284378201915050505050509192919290505050611436565b6040518082815260200191505060405180910390f35b3480156107c457600080fd5b50610869600480360381019080803573ffffffffffffffffffffffffffffffffffffffff169060200190929190803573ffffffffffffffffffffffffffffffffffffffff16906020019092919080359060200190929190803590602001908201803590602001908080601f01602080910402602001604051908101604052809392919081815260200183838082843782019150505050505091929192905050506115e0565b005b34801561087757600080fd5b506108ac600480360381019080803573ffffffffffffffffffffffffffffffffffffffff169060200190929190505050611608565b604051808215151515815260200191505060405180910390f35b3480156108d257600080fd5b506108f16004803603810190808035906020019092919050505061172d565b60405180871515151581526020018060200186815260200185151515158152602001848152602001838152602001828103825287818151815260200191508051906020019080838360005b8381101561095757808201518184015260208101905061093c565b50505050905090810190601f1680156109845780820380516001836020036101000a031916815260200191505b5097505050505050505060405180910390f35b3480156109a357600080fd5b506109f8600480360381019080803573ffffffffffffffffffffffffffffffffffffffff169060200190929190803573ffffffffffffffffffffffffffffffffffffffff169060200190929190505050611873565b604051808215151515815260200191505060405180910390f35b6000610a1d82611084565b73ffffffffffffffffffffffffffffffffffffffff163373ffffffffffffffffffffffffffffffffffffffff16141515610a5657600080fd5b610a68610a6283611084565b83611907565b60019050919050565b6000806000837bffffffffffffffffffffffffffffffffffffffffffffffffffffffff19167bffffffffffffffffffffffffffffffffffffffffffffffffffffffff1916815260200190815260200160002060009054906101000a900460ff169050919050565b6000610ae38261197b565b1515610aee57600080fd5b6002600083815260200190815260200160002060009054906101000a900473ffffffffffffffffffffffffffffffffffffffff169050919050565b6000610b3482611084565b90508073ffffffffffffffffffffffffffffffffffffffff168373ffffffffffffffffffffffffffffffffffffffff1614151515610b7157600080fd5b8073ffffffffffffffffffffffffffffffffffffffff163373ffffffffffffffffffffffffffffffffffffffff161480610bb15750610bb08133611873565b5b1515610bbc57600080fd5b826002600084815260200190815260200160002060006101000a81548173ffffffffffffffffffffffffffffffffffffffff021916908373ffffffffffffffffffffffffffffffffffffffff160217905550818373ffffffffffffffffffffffffffffffffffffffff168273ffffffffffffffffffffffffffffffffffffffff167f8c5be1e5ebec7d5bd14f71427d1e84f3dd0314c0f7b2291e5b200ac8c7c3b92560405160405180910390a4505050565b610c7833826119ed565b1515610c8357600080fd5b600073ffffffffffffffffffffffffffffffffffffffff168273ffffffffffffffffffffffffffffffffffffffff1614151515610cbf57600080fd5b610cc98382611a82565b610cd38382611b85565b610cdd8282611cb4565b808273ffffffffffffffffffffffffffffffffffffffff168473ffffffffffffffffffffffffffffffffffffffff167fddf252ad1be2c89b69c2b068fc378daa952ba7f163c4a11628f55a4df523b3ef60405160405180910390a4505050565b600080600060011515600560003373ffffffffffffffffffffffffffffffffffffffff1673ffffffffffffffffffffffffffffffffffffffff16815260200190815260200160002060009054906101000a900460ff161515141515610da157600080fd5b6009805490509150336001600084815260200190815260200160002060006101000a81548173ffffffffffffffffffffffffffffffffffffffff021916908373ffffffffffffffffffffffffffffffffffffffff1602179055506009829080600181540180825580915050906001820390600052602060002001600090919290919091505550600860008381526020019081526020016000209050338160000160006101000a81548173ffffffffffffffffffffffffffffffffffffffff021916908373ffffffffffffffffffffffffffffffffffffffff16021790555087816001019080519060200190610e9792919061216b565b50868160020160006101000a81548160ff02191690831515021790555085816003018190555084816004018190555083816005018190555042816006018190555060019250505095945050505050565b600760009054906101000a900473ffffffffffffffffffffffffffffffffffffffff1681565b610f2983838360206040519081016040528060008152506115e0565b505050565b600080600060098054905091506009829080600181540180825580915050906001820390600052602060002001600090919290919091505550600860008381526020019081526020016000209050838160000160006101000a81548173ffffffffffffffffffffffffffffffffffffffff021916908373ffffffffffffffffffffffffffffffffffffffff16021790555084816001019080519060200190610fd792919061216b565b506004610fe2611e0e565b111561100a5760018160020160006101000a81548160ff021916908315150217905550611028565b60008160020160006101000a81548160ff0219169083151502179055505b611030611e0e565b611038611e0e565b028160030181905550611049611e0e565b600a611053611e0e565b0201816004018190555080600301548160040154038160050181905550428160060181905550819250505092915050565b6000806001600084815260200190815260200160002060009054906101000a900473ffffffffffffffffffffffffffffffffffffffff169050600073ffffffffffffffffffffffffffffffffffffffff168173ffffffffffffffffffffffffffffffffffffffff16141515156110f957600080fd5b80915050919050565b60008073ffffffffffffffffffffffffffffffffffffffff168273ffffffffffffffffffffffffffffffffffffffff161415151561113f57600080fd5b600360008373ffffffffffffffffffffffffffffffffffffffff1673ffffffffffffffffffffffffffffffffffffffff168152602001908152602001600020549050919050565b600061119a61119483611084565b83611907565b60019050919050565b60006111ae82611e45565b9050919050565b6060600080600090505b6009805490508110156112a1578373ffffffffffffffffffffffffffffffffffffffff16600860006009848154811015156111f657fe5b9060005260206000200154815260200190815260200160002060000160009054906101000a900473ffffffffffffffffffffffffffffffffffffffff1673ffffffffffffffffffffffffffffffffffffffff161415611294578160098281548110151561125f57fe5b906000526020600020015490806001815401808255809150509060018203906000526020600020016000909192909190915055505b80806001019150506111bf565b818054806020026020016040519081016040528092919081815260200182805480156112ec57602002820191906000526020600020905b8154815260200190600101908083116112d8575b505050505092505050919050565b3373ffffffffffffffffffffffffffffffffffffffff168273ffffffffffffffffffffffffffffffffffffffff161415151561133557600080fd5b80600460003373ffffffffffffffffffffffffffffffffffffffff1673ffffffffffffffffffffffffffffffffffffffff16815260200190815260200160002060008473ffffffffffffffffffffffffffffffffffffffff1673ffffffffffffffffffffffffffffffffffffffff16815260200190815260200160002060006101000a81548160ff0219169083151502179055508173ffffffffffffffffffffffffffffffffffffffff163373ffffffffffffffffffffffffffffffffffffffff167f17307eab39ab6107e8899845ad3d59bd9653f200f220920489ca2b5937696c3183604051808215151515815260200191505060405180910390a35050565b60008060006009805490509150600982908060018154018082558091505090600182039060005260206000200160009091929091909150555060086000838152602001908152602001600020905061148d85611084565b8160000160006101000a81548173ffffffffffffffffffffffffffffffffffffffff021916908373ffffffffffffffffffffffffffffffffffffffff1602179055506114d885611084565b6001600084815260200190815260200160002060006101000a81548173ffffffffffffffffffffffffffffffffffffffff021916908373ffffffffffffffffffffffffffffffffffffffff1602179055508381600101908051906020019061154192919061216b565b50600461154c611e0e565b11156115745760018160020160006101000a81548160ff021916908315150217905550611592565b60008160020160006101000a81548160ff0219169083151502179055505b600081600301819055506115a4611e0e565b600a6115ae611e0e565b020181600401819055508060030154816004015403816005018190555042816006018190555081925050509392505050565b6115eb848484610c6e565b6115f784848484611ef4565b151561160257600080fd5b50505050565b6000600760009054906101000a900473ffffffffffffffffffffffffffffffffffffffff1673ffffffffffffffffffffffffffffffffffffffff163373ffffffffffffffffffffffffffffffffffffffff1614151561166657600080fd5b6001600560008473ffffffffffffffffffffffffffffffffffffffff1673ffffffffffffffffffffffffffffffffffffffff16815260200190815260200160002060006101000a81548160ff02191690831515021790555060068290806001815401808255809150509060018203906000526020600020016000909192909190916101000a81548173ffffffffffffffffffffffffffffffffffffffff021916908373ffffffffffffffffffffffffffffffffffffffff1602179055505060019050919050565b6000606060008060008061174087611e45565b50600160086000898152602001908152602001600020600101600860008a815260200190815260200160002060030154600860008b815260200190815260200160002060020160009054906101000a900460ff16600860008c815260200190815260200160002060040154600860008d815260200190815260200160002060050154848054600181600116156101000203166002900480601f0160208091040260200160405190810160405280929190818152602001828054600181600116156101000203166002900480156118575780601f1061182c57610100808354040283529160200191611857565b820191906000526020600020905b81548152906001019060200180831161183a57829003601f168201915b5050505050945095509550955095509550955091939550919395565b6000600460008473ffffffffffffffffffffffffffffffffffffffff1673ffffffffffffffffffffffffffffffffffffffff16815260200190815260200160002060008373ffffffffffffffffffffffffffffffffffffffff1673ffffffffffffffffffffffffffffffffffffffff16815260200190815260200160002060009054906101000a900460ff16905092915050565b6119118282611a82565b61191b8282611b85565b80600073ffffffffffffffffffffffffffffffffffffffff168373ffffffffffffffffffffffffffffffffffffffff167fddf252ad1be2c89b69c2b068fc378daa952ba7f163c4a11628f55a4df523b3ef60405160405180910390a45050565b6000806001600084815260200190815260200160002060009054906101000a900473ffffffffffffffffffffffffffffffffffffffff169050600073ffffffffffffffffffffffffffffffffffffffff168173ffffffffffffffffffffffffffffffffffffffff161415915050919050565b6000806119f983611084565b90508073ffffffffffffffffffffffffffffffffffffffff168473ffffffffffffffffffffffffffffffffffffffff161480611a6857508373ffffffffffffffffffffffffffffffffffffffff16611a5084610ad8565b73ffffffffffffffffffffffffffffffffffffffff16145b80611a795750611a788185611873565b5b91505092915050565b8173ffffffffffffffffffffffffffffffffffffffff16611aa282611084565b73ffffffffffffffffffffffffffffffffffffffff16141515611ac457600080fd5b600073ffffffffffffffffffffffffffffffffffffffff166002600083815260200190815260200160002060009054906101000a900473ffffffffffffffffffffffffffffffffffffffff1673ffffffffffffffffffffffffffffffffffffffff16141515611b815760006002600083815260200190815260200160002060006101000a81548173ffffffffffffffffffffffffffffffffffffffff021916908373ffffffffffffffffffffffffffffffffffffffff1602179055505b5050565b8173ffffffffffffffffffffffffffffffffffffffff16611ba582611084565b73ffffffffffffffffffffffffffffffffffffffff16141515611bc757600080fd5b611c1a6001600360008573ffffffffffffffffffffffffffffffffffffffff1673ffffffffffffffffffffffffffffffffffffffff1681526020019081526020016000205461211690919063ffffffff16565b600360008473ffffffffffffffffffffffffffffffffffffffff1673ffffffffffffffffffffffffffffffffffffffff1681526020019081526020016000208190555060006001600083815260200190815260200160002060006101000a81548173ffffffffffffffffffffffffffffffffffffffff021916908373ffffffffffffffffffffffffffffffffffffffff1602179055505050565b600073ffffffffffffffffffffffffffffffffffffffff166001600083815260200190815260200160002060009054906101000a900473ffffffffffffffffffffffffffffffffffffffff1673ffffffffffffffffffffffffffffffffffffffff16141515611d2257600080fd5b816001600083815260200190815260200160002060006101000a81548173ffffffffffffffffffffffffffffffffffffffff021916908373ffffffffffffffffffffffffffffffffffffffff160217905550611dc76001600360008573ffffffffffffffffffffffffffffffffffffffff1673ffffffffffffffffffffffffffffffffffffffff1681526020019081526020016000205461213790919063ffffffff16565b600360008473ffffffffffffffffffffffffffffffffffffffff1673ffffffffffffffffffffffffffffffffffffffff168152602001908152602001600020819055505050565b60006033600b541415611e24576000600b819055505b600a600b54815481101515611e3557fe5b9060005260206000200154905090565b6000806008600084815260200190815260200160002090508060060154420381600301819055506404b3cd5c0081600301541115611ee45764054a4707808160030154101515611eaa57611ea1611e9b84611084565b84611907565b60009150611eee565b6404b3cd5c00816003015403611ebe611e0e565b1015611edf57611ed6611ed084611084565b84611907565b60009150611eee565b611eed565b60019150611eee565b5b50919050565b600080611f168573ffffffffffffffffffffffffffffffffffffffff16612158565b1515611f25576001915061210d565b8473ffffffffffffffffffffffffffffffffffffffff1663150b7a02338887876040518563ffffffff167c0100000000000000000000000000000000000000000000000000000000028152600401808573ffffffffffffffffffffffffffffffffffffffff1673ffffffffffffffffffffffffffffffffffffffff1681526020018473ffffffffffffffffffffffffffffffffffffffff1673ffffffffffffffffffffffffffffffffffffffff16815260200183815260200180602001828103825283818151815260200191508051906020019080838360005b8381101561201a578082015181840152602081019050611fff565b50505050905090810190601f1680156120475780820380516001836020036101000a031916815260200191505b5095505050505050602060405180830381600087803b15801561206957600080fd5b505af115801561207d573d6000803e3d6000fd5b505050506040513d602081101561209357600080fd5b8101908080519060200190929190505050905063150b7a027c0100000000000000000000000000000000000000000000000000000000027bffffffffffffffffffffffffffffffffffffffffffffffffffffffff1916817bffffffffffffffffffffffffffffffffffffffffffffffffffffffff19161491505b50949350505050565b60008083831115151561212857600080fd5b82840390508091505092915050565b600080828401905083811015151561214e57600080fd5b8091505092915050565b600080823b905060008111915050919050565b828054600181600116156101000203166002900490600052602060002090601f016020900481019282601f106121ac57805160ff19168380011785556121da565b828001600101855582156121da579182015b828111156121d95782518255916020019190600101906121be565b5b5090506121e791906121eb565b5090565b61220d91905b808211156122095760008160009055506001016121f1565b5090565b905600a165627a7a7230582069847ebe2f73ef37f9d40ed6ed696498d0af11387985d2d17613fba3cecd51360029",
  "source": "pragma solidity ^0.4.24;\r\n\r\nimport \"./token/ERC721/IERC721.sol\";\r\nimport \"./token/ERC721/IERC721Receiver.sol\";\r\nimport \"./math/SafeMath.sol\";\r\nimport \"./utils/Address.sol\";\r\nimport \"./introspection/ERC165.sol\";\r\n\r\n/**\r\n * @title ERC721 Non-Fungible Token Standard basic implementation\r\n * @dev see https://github.com/ethereum/EIPs/blob/master/EIPS/eip-721.md\r\n */\r\ncontract MarxCoin is ERC165, IERC721 {\r\n\r\n  using SafeMath for uint256;\r\n  using Address for address;\r\n\r\n  // Equals to `bytes4(keccak256(\"onERC721Received(address,address,uint256,bytes)\"))`\r\n  // which can be also obtained as `IERC721Receiver(0).onERC721Received.selector`\r\n  bytes4 private constant _ERC721_RECEIVED = 0x150b7a02;\r\n\r\n  // Mapping from token ID to owner\r\n  mapping (uint256 => address) private _tokenOwner;\r\n\r\n  // Mapping from token ID to approved address\r\n  mapping (uint256 => address) private _tokenApprovals;\r\n\r\n  // Mapping from owner to number of owned token\r\n  mapping (address => uint256) private _ownedTokensCount;\r\n\r\n  // Mapping from owner to operator approvals\r\n  mapping (address => mapping (address => bool)) private _operatorApprovals;\r\n\r\n  bytes4 private constant _InterfaceId_ERC721 = 0x80ac58cd;\r\n  /*\r\n   * 0x80ac58cd ===\r\n   *   bytes4(keccak256('balanceOf(address)')) ^\r\n   *   bytes4(keccak256('ownerOf(uint256)')) ^\r\n   *   bytes4(keccak256('approve(address,uint256)')) ^\r\n   *   bytes4(keccak256('getApproved(uint256)')) ^\r\n   *   bytes4(keccak256('setApprovalForAll(address,bool)')) ^\r\n   *   bytes4(keccak256('isApprovedForAll(address,address)')) ^\r\n   *   bytes4(keccak256('transferFrom(address,address,uint256)')) ^\r\n   *   bytes4(keccak256('safeTransferFrom(address,address,uint256)')) ^\r\n   *   bytes4(keccak256('safeTransferFrom(address,address,uint256,bytes)'))\r\n   */\r\n  mapping (address => bool) Komandarm;\r\n  address[] komandarmsAccs;\r\n  address public Stalin;\r\n\r\n  struct citizen{\r\n    address owner;\r\n    string name;\r\n    bool isMale;\r\n    uint256 age;\r\n    uint256 strength;\r\n    uint256 hunger;\r\n    uint declarationDate;\r\n    }\r\n\r\n  mapping (uint256 => citizen) Komrads;\r\n  uint256[] ids;\r\n  uint256[] pi = [3,1,4,1,5,9,2,6,5,3,5,8,9,7,9,3,2,3,8,4,6,2,6,4,3,3,8,3,2,7,9,5,0,2,8,8,4,0,1,9,7,1,6,9,3,9,9,3,7,5,1,0];\r\n  uint256 count;\r\n\r\n  constructor()\r\n    public\r\n  {\r\n    // register the supported interfaces to conform to ERC721 via ERC165\r\n    _registerInterface(_InterfaceId_ERC721);\r\n    Stalin = msg.sender;\r\n    count = 0;\r\n    addKomandarm(Stalin);\r\n    declareCitizen(\"Dimitri\", true, 38, 40, 0);\r\n    declareCitizen(\"Svetlana\", false, 38, 40, 0);\r\n  }\r\n\r\n  /**\r\n   * @dev Gets the balance of the specified address\r\n   * @param owner address to query the balance of\r\n   * @return uint256 representing the amount owned by the passed address\r\n   */\r\n  function balanceOf(address owner) public view returns (uint256) {\r\n    require(owner != address(0));\r\n    return _ownedTokensCount[owner];\r\n  }\r\n\r\n  function viewCitizens(address owner) public view returns (uint256[]){\r\n    uint256[] citizens;\r\n    for (uint256 i = 0 ; i < ids.length ; i++){\r\n      if(Komrads[ids[i]].owner == owner){\r\n        citizens.push(ids[i]);\r\n      }\r\n    }\r\n    return citizens;\r\n\r\n  }\r\n\r\n  /**\r\n   * @dev Gets the owner of the specified token ID\r\n   * @param tokenId uint256 ID of the token to query the owner of\r\n   * @return owner address currently marked as the owner of the given token ID\r\n   */\r\n  function ownerOf(uint256 tokenId) public view returns (address) {\r\n    address owner = _tokenOwner[tokenId];\r\n    require(owner != address(0));\r\n    return owner;\r\n  }\r\n\r\n  /**\r\n   * @dev Approves another address to transfer the given token ID\r\n   * The zero address indicates there is no approved address.\r\n   * There can only be one approved address per token at a given time.\r\n   * Can only be called by the token owner or an approved operator.\r\n   * @param to address to be approved for the given token ID\r\n   * @param tokenId uint256 ID of the token to be approved\r\n   */\r\n  function approve(address to, uint256 tokenId) public {\r\n    address owner = ownerOf(tokenId);\r\n    require(to != owner);\r\n    require(msg.sender == owner || isApprovedForAll(owner, msg.sender));\r\n\r\n    _tokenApprovals[tokenId] = to;\r\n    emit Approval(owner, to, tokenId);\r\n  }\r\n\r\n  /**\r\n   * @dev Gets the approved address for a token ID, or zero if no address set\r\n   * Reverts if the token ID does not exist.\r\n   * @param tokenId uint256 ID of the token to query the approval of\r\n   * @return address currently approved for the given token ID\r\n   */\r\n  function getApproved(uint256 tokenId) public view returns (address) {\r\n    require(_exists(tokenId));\r\n    return _tokenApprovals[tokenId];\r\n  }\r\n\r\n  /**\r\n   * @dev Sets or unsets the approval of a given operator\r\n   * An operator is allowed to transfer all tokens of the sender on their behalf\r\n   * @param to operator address to set the approval\r\n   * @param approved representing the status of the approval to be set\r\n   */\r\n  function setApprovalForAll(address to, bool approved) public {\r\n    require(to != msg.sender);\r\n    _operatorApprovals[msg.sender][to] = approved;\r\n    emit ApprovalForAll(msg.sender, to, approved);\r\n  }\r\n\r\n  /**\r\n   * @dev Tells whether an operator is approved by a given owner\r\n   * @param owner owner address which you want to query the approval of\r\n   * @param operator operator address which you want to query the approval of\r\n   * @return bool whether the given operator is approved by the given owner\r\n   */\r\n  function isApprovedForAll(\r\n    address owner,\r\n    address operator\r\n  )\r\n    public\r\n    view\r\n    returns (bool)\r\n  {\r\n    return _operatorApprovals[owner][operator];\r\n  }\r\n\r\n  /**\r\n   * @dev Transfers the ownership of a given token ID to another address\r\n   * Usage of this method is discouraged, use `safeTransferFrom` whenever possible\r\n   * Requires the msg sender to be the owner, approved, or operator\r\n   * @param from current owner of the token\r\n   * @param to address to receive the ownership of the given token ID\r\n   * @param tokenId uint256 ID of the token to be transferred\r\n  */\r\n  function transferFrom(\r\n    address from,\r\n    address to,\r\n    uint256 tokenId\r\n  )\r\n    public\r\n  {\r\n    require(_isApprovedOrOwner(msg.sender, tokenId));\r\n    require(to != address(0));\r\n\r\n    _clearApproval(from, tokenId);\r\n    _removeTokenFrom(from, tokenId);\r\n    _addTokenTo(to, tokenId);\r\n\r\n    emit Transfer(from, to, tokenId);\r\n  }\r\n\r\n  /**\r\n   * @dev Safely transfers the ownership of a given token ID to another address\r\n   * If the target address is a contract, it must implement `onERC721Received`,\r\n   * which is called upon a safe transfer, and return the magic value\r\n   * `bytes4(keccak256(\"onERC721Received(address,address,uint256,bytes)\"))`; otherwise,\r\n   * the transfer is reverted.\r\n   *\r\n   * Requires the msg sender to be the owner, approved, or operator\r\n   * @param from current owner of the token\r\n   * @param to address to receive the ownership of the given token ID\r\n   * @param tokenId uint256 ID of the token to be transferred\r\n  */\r\n  function safeTransferFrom(\r\n    address from,\r\n    address to,\r\n    uint256 tokenId\r\n  )\r\n    public\r\n  {\r\n    // solium-disable-next-line arg-overflow\r\n    safeTransferFrom(from, to, tokenId, \"\");\r\n  }\r\n\r\n  /**\r\n   * @dev Safely transfers the ownership of a given token ID to another address\r\n   * If the target address is a contract, it must implement `onERC721Received`,\r\n   * which is called upon a safe transfer, and return the magic value\r\n   * `bytes4(keccak256(\"onERC721Received(address,address,uint256,bytes)\"))`; otherwise,\r\n   * the transfer is reverted.\r\n   * Requires the msg sender to be the owner, approved, or operator\r\n   * @param from current owner of the token\r\n   * @param to address to receive the ownership of the given token ID\r\n   * @param tokenId uint256 ID of the token to be transferred\r\n   * @param _data bytes data to send along with a safe transfer check\r\n   */\r\n  function safeTransferFrom(\r\n    address from,\r\n    address to,\r\n    uint256 tokenId,\r\n    bytes _data\r\n  )\r\n    public\r\n  {\r\n    transferFrom(from, to, tokenId);\r\n    // solium-disable-next-line arg-overflow\r\n    require(_checkOnERC721Received(from, to, tokenId, _data));\r\n  }\r\n\r\n  /**\r\n   * @dev Returns whether the specified token exists\r\n   * @param tokenId uint256 ID of the token to query the existence of\r\n   * @return whether the token exists\r\n   */\r\n  function _exists(uint256 tokenId) internal view returns (bool) {\r\n    address owner = _tokenOwner[tokenId];\r\n    return owner != address(0);\r\n  }\r\n\r\n  /**\r\n   * @dev Returns whether the given spender can transfer a given token ID\r\n   * @param spender address of the spender to query\r\n   * @param tokenId uint256 ID of the token to be transferred\r\n   * @return bool whether the msg.sender is approved for the given token ID,\r\n   *  is an operator of the owner, or is the owner of the token\r\n   */\r\n  function _isApprovedOrOwner(\r\n    address spender,\r\n    uint256 tokenId\r\n  )\r\n    internal\r\n    view\r\n    returns (bool)\r\n  {\r\n    address owner = ownerOf(tokenId);\r\n    // Disable solium check because of\r\n    // https://github.com/duaraghav8/Solium/issues/175\r\n    // solium-disable-next-line operator-whitespace\r\n    return (\r\n      spender == owner ||\r\n      getApproved(tokenId) == spender ||\r\n      isApprovedForAll(owner, spender)\r\n    );\r\n  }\r\n\r\n  /**\r\n   * @dev Internal function to mint a new token\r\n   * Reverts if the given token ID already exists\r\n   * @param to The address that will own the minted token\r\n   * @param tokenId uint256 ID of the token to be minted by the msg.sender\r\n   */\r\n  function _mint(address to, uint256 tokenId) internal {\r\n    require(to != address(0));\r\n    _addTokenTo(to, tokenId);\r\n    emit Transfer(address(0), to, tokenId);\r\n  }\r\n\r\n  /**\r\n   * @dev Internal function to burn a specific token\r\n   * Reverts if the token does not exist\r\n   * @param tokenId uint256 ID of the token being burned by the msg.sender\r\n   */\r\n  function _burn(address owner, uint256 tokenId) internal {\r\n    _clearApproval(owner, tokenId);\r\n    _removeTokenFrom(owner, tokenId);\r\n    emit Transfer(owner, address(0), tokenId);\r\n  }\r\n\r\n  /**\r\n   * @dev Internal function to add a token ID to the list of a given address\r\n   * Note that this function is left internal to make ERC721Enumerable possible, but is not\r\n   * intended to be called by custom derived contracts: in particular, it emits no Transfer event.\r\n   * @param to address representing the new owner of the given token ID\r\n   * @param tokenId uint256 ID of the token to be added to the tokens list of the given address\r\n   */\r\n  function _addTokenTo(address to, uint256 tokenId) internal {\r\n    require(_tokenOwner[tokenId] == address(0));\r\n    _tokenOwner[tokenId] = to;\r\n    _ownedTokensCount[to] = _ownedTokensCount[to].add(1);\r\n  }\r\n\r\n  /**\r\n   * @dev Internal function to remove a token ID from the list of a given address\r\n   * Note that this function is left internal to make ERC721Enumerable possible, but is not\r\n   * intended to be called by custom derived contracts: in particular, it emits no Transfer event,\r\n   * and doesn't clear approvals.\r\n   * @param from address representing the previous owner of the given token ID\r\n   * @param tokenId uint256 ID of the token to be removed from the tokens list of the given address\r\n   */\r\n  function _removeTokenFrom(address from, uint256 tokenId) internal {\r\n    require(ownerOf(tokenId) == from);\r\n    _ownedTokensCount[from] = _ownedTokensCount[from].sub(1);\r\n    _tokenOwner[tokenId] = address(0);\r\n  }\r\n\r\n  /**\r\n   * @dev Internal function to invoke `onERC721Received` on a target address\r\n   * The call is not executed if the target address is not a contract\r\n   * @param from address representing the previous owner of the given token ID\r\n   * @param to target address that will receive the tokens\r\n   * @param tokenId uint256 ID of the token to be transferred\r\n   * @param _data bytes optional data to send along with the call\r\n   * @return whether the call correctly returned the expected magic value\r\n   */\r\n  function _checkOnERC721Received(\r\n    address from,\r\n    address to,\r\n    uint256 tokenId,\r\n    bytes _data\r\n  )\r\n    internal\r\n    returns (bool)\r\n  {\r\n    if (!to.isContract()) {\r\n      return true;\r\n    }\r\n    bytes4 retval = IERC721Receiver(to).onERC721Received(\r\n      msg.sender, from, tokenId, _data);\r\n    return (retval == _ERC721_RECEIVED);\r\n  }\r\n\r\n  /**\r\n   * @dev Private function to clear current approval of a given token ID\r\n   * Reverts if the given address is not indeed the owner of the token\r\n   * @param owner owner of the token\r\n   * @param tokenId uint256 ID of the token to be transferred\r\n   */\r\n  function _clearApproval(address owner, uint256 tokenId) private {\r\n    require(ownerOf(tokenId) == owner);\r\n    if (_tokenApprovals[tokenId] != address(0)) {\r\n      _tokenApprovals[tokenId] = address(0);\r\n    }\r\n  }\r\n\r\n  //takes a number from the 50 first decimals of pi\r\n  //not true random, can easily be predicted if you count the transactions\r\n  function fakeRand() internal returns(uint256){\r\n    if (count==51){\r\n      count=0;\r\n    }\r\n    return pi[count];\r\n  }\r\n  //Declare a new Komandarm to monitor the actions of the citizens of the motherland\r\n  function addKomandarm(address _new) public returns (bool success){\r\n        require(msg.sender == Stalin);\r\n        Komandarm[_new] = true;\r\n        komandarmsAccs.push(_new);\r\n        return true;\r\n  }\r\n\r\n  function declareCitizen(string _name, bool _isMale, uint256 _age, uint256 _strength, uint256 _hunger) public returns (bool success){\r\n    require(Komandarm[msg.sender] == true);\r\n    uint256 id = ids.length;\r\n    _tokenOwner[id] = msg.sender;\r\n    ids.push(id);\r\n    citizen newCitizen = Komrads[id];\r\n    newCitizen.owner = msg.sender;\r\n    newCitizen.name = _name;\r\n    newCitizen.isMale = _isMale;\r\n    newCitizen.age = _age;\r\n    newCitizen.strength = _strength;\r\n    newCitizen.hunger = _hunger;\r\n    newCitizen.declarationDate = block.timestamp;\r\n    return true;\r\n  }\r\n  function death(uint256 _id) public returns (bool success){\r\n    require(msg.sender==ownerOf(_id));\r\n    _burn(ownerOf(_id),_id);\r\n    return true;\r\n\r\n  }\r\n  //is equivalent to death\r\n  function gulag(uint256 _id) public returns (bool success){\r\n    _burn(ownerOf(_id),_id);\r\n    return true;\r\n  }\r\n\r\n  function babyProletarian(uint256 _id1,uint256 _id2,string _name)  public returns (uint256 babyId){\r\n    uint256 id = ids.length;\r\n    ids.push(id);\r\n    citizen newCitizen = Komrads[id];\r\n    newCitizen.owner = ownerOf(_id2);\r\n    _tokenOwner[id] = ownerOf(_id2);\r\n    newCitizen.name = _name;\r\n    if(fakeRand()>4){\r\n      newCitizen.isMale = true;\r\n    }\r\n    else{\r\n      newCitizen.isMale = false;\r\n    }\r\n    newCitizen.age = 0;\r\n    newCitizen.strength = fakeRand() * 10 + fakeRand();\r\n    newCitizen.hunger = newCitizen.strength - newCitizen.age ;\r\n    newCitizen.declarationDate = block.timestamp;\r\n    return id;\r\n  }\r\n\r\n   function spawn(string _name, address _owner)  public returns (uint256 babyId){\r\n    uint256 id = ids.length;\r\n    ids.push(id);\r\n    citizen newCitizen = Komrads[id];\r\n    newCitizen.owner = _owner;\r\n    newCitizen.name = _name;\r\n    if(fakeRand()>4){\r\n      newCitizen.isMale = true;\r\n    }\r\n    else{\r\n      newCitizen.isMale = false;\r\n    }\r\n    newCitizen.age = fakeRand() * fakeRand();\r\n    newCitizen.strength = fakeRand() * 10 + fakeRand();\r\n    newCitizen.hunger = newCitizen.strength - newCitizen.age ;\r\n    newCitizen.declarationDate = block.timestamp;\r\n    return id;\r\n  }\r\n\r\n  function aging(uint256 _id) internal returns (bool success){\r\n    citizen citizenToUpdate = Komrads[_id];\r\n    citizenToUpdate.age = now - citizenToUpdate.declarationDate;\r\n    if(citizenToUpdate.age > 80 * 252455616){//80 years in seconds\r\n      if(citizenToUpdate.age >= 90 * 252455616){\r\n        _burn(ownerOf(_id),_id);\r\n        return false;\r\n      }\r\n      else{\r\n        if(fakeRand() < (citizenToUpdate.age - 80 * 252455616)){\r\n          _burn(ownerOf(_id),_id);\r\n          return false;\r\n        }\r\n      }\r\n    }\r\n    else{\r\n          return true;\r\n    }\r\n  }\r\n  function update(uint256 _id)public returns (bool success){\r\n    return aging(_id);\r\n  }\r\n\r\n  function viewStats(uint256 _id)public returns(bool success, string name, uint256 age, bool isMale, uint256 strength, uint256 hunger){\r\n    aging(_id);\r\n    return(true , Komrads[_id].name , Komrads[_id].age , Komrads[_id].isMale , Komrads[_id].strength , Komrads[_id].hunger);\r\n  }\r\n  /*\r\n  function askToReproduce(uint256 _idOwn, address _otherOwner, uint256 _idOther) public returns(bool success){}\r\n  function babyProletarian(uint256 _id1,uint256 _id2)  public returns (citizen littleLenin){\r\n  \r\n  }*/\r\n}\r\n",
  "sourcePath": "C:\\Users\\Ewan Debove\\desktop\\blockchain\\td6\\contracts\\MarxCoin.sol",
  "compiler": {
    "name": "solc",
    "version": "0.4.25+commit.59dbf8f1.Emscripten.clang"
  },
  "schemaVersion": "2.0.2",
  "updatedAt": "2019-03-16T16:24:46.044Z"
}